{
	"contracts/RSU.sol": {
		"RSU": {
			"abi": [
				{
					"inputs": [],
					"stateMutability": "nonpayable",
					"type": "constructor"
				},
				{
					"inputs": [
						{
							"internalType": "uint256",
							"name": "uuId",
							"type": "uint256"
						}
					],
					"name": "getRsuMessage",
					"outputs": [
						{
							"internalType": "uint256",
							"name": "",
							"type": "uint256"
						},
						{
							"internalType": "uint256",
							"name": "",
							"type": "uint256"
						},
						{
							"internalType": "string",
							"name": "",
							"type": "string"
						}
					],
					"stateMutability": "view",
					"type": "function"
				},
				{
					"inputs": [
						{
							"internalType": "uint256",
							"name": "uuId",
							"type": "uint256"
						},
						{
							"internalType": "uint256",
							"name": "trust",
							"type": "uint256"
						}
					],
					"name": "setRsuMessage",
					"outputs": [],
					"stateMutability": "nonpayable",
					"type": "function"
				},
				{
					"inputs": [
						{
							"internalType": "address",
							"name": "add",
							"type": "address"
						}
					],
					"name": "setSourceTrust",
					"outputs": [],
					"stateMutability": "nonpayable",
					"type": "function"
				},
				{
					"inputs": [],
					"name": "sourceTrust",
					"outputs": [
						{
							"internalType": "contract SourceTrust",
							"name": "",
							"type": "address"
						}
					],
					"stateMutability": "view",
					"type": "function"
				}
			],
			"devdoc": {
				"kind": "dev",
				"methods": {},
				"version": 1
			},
			"evm": {
				"assembly": "    /* \"contracts/RSU.sol\":93:699  contract RSU {... */\n  mstore(0x40, 0x80)\n    /* \"contracts/RSU.sol\":149:254  constructor() {... */\n  callvalue\n  dup1\n  iszero\n  tag_1\n  jumpi\n  0x00\n  dup1\n  revert\ntag_1:\n  pop\n    /* \"contracts/RSU.sol\":187:204  new SourceTrust() */\n  mload(0x40)\n  tag_4\n  swap1\n  tag_5\n  jump\t// in\ntag_4:\n  mload(0x40)\n  dup1\n  swap2\n  sub\n  swap1\n  0x00\n  create\n  dup1\n  iszero\n  dup1\n  iszero\n  tag_6\n  jumpi\n  returndatasize\n  0x00\n  dup1\n  returndatacopy\n  revert(0x00, returndatasize)\ntag_6:\n  pop\n    /* \"contracts/RSU.sol\":173:184  sourceTrust */\n  0x00\n  dup1\n    /* \"contracts/RSU.sol\":173:204  sourceTrust = new SourceTrust() */\n  0x0100\n  exp\n  dup2\n  sload\n  dup2\n  0xffffffffffffffffffffffffffffffffffffffff\n  mul\n  not\n  and\n  swap1\n  dup4\n  0xffffffffffffffffffffffffffffffffffffffff\n  and\n  mul\n  or\n  swap1\n  sstore\n  pop\n    /* \"contracts/RSU.sol\":93:699  contract RSU {... */\n  jump(tag_7)\ntag_5:\n  dataSize(sub_1)\n  dup1\n  dataOffset(sub_1)\n  dup4\n  codecopy\n  add\n  swap1\n  jump\t// out\ntag_7:\n  dataSize(sub_0)\n  dup1\n  dataOffset(sub_0)\n  0x00\n  codecopy\n  0x00\n  return\nstop\n\nsub_0: assembly {\n        /* \"contracts/RSU.sol\":93:699  contract RSU {... */\n      mstore(0x40, 0x80)\n      callvalue\n      dup1\n      iszero\n      tag_1\n      jumpi\n      0x00\n      dup1\n      revert\n    tag_1:\n      pop\n      jumpi(tag_2, lt(calldatasize, 0x04))\n      shr(0xe0, calldataload(0x00))\n      dup1\n      0x0d6260f5\n      eq\n      tag_3\n      jumpi\n      dup1\n      0x5f030343\n      eq\n      tag_4\n      jumpi\n      dup1\n      0x9ec2568f\n      eq\n      tag_5\n      jumpi\n      dup1\n      0xa2384044\n      eq\n      tag_6\n      jumpi\n    tag_2:\n      0x00\n      dup1\n      revert\n        /* \"contracts/RSU.sol\":579:697  function setRsuMessage(uint256 uuId, uint256 trust) public {... */\n    tag_3:\n      tag_7\n      0x04\n      dup1\n      calldatasize\n      sub\n      dup2\n      add\n      swap1\n      tag_8\n      swap2\n      swap1\n      tag_9\n      jump\t// in\n    tag_8:\n      tag_10\n      jump\t// in\n    tag_7:\n      stop\n        /* \"contracts/RSU.sol\":355:574  function getRsuMessage(uint256 uuId) public view returns (uint, uint, string memory) {... */\n    tag_4:\n      tag_11\n      0x04\n      dup1\n      calldatasize\n      sub\n      dup2\n      add\n      swap1\n      tag_12\n      swap2\n      swap1\n      tag_13\n      jump\t// in\n    tag_12:\n      tag_14\n      jump\t// in\n    tag_11:\n      mload(0x40)\n      tag_15\n      swap4\n      swap3\n      swap2\n      swap1\n      tag_16\n      jump\t// in\n    tag_15:\n      mload(0x40)\n      dup1\n      swap2\n      sub\n      swap1\n      return\n        /* \"contracts/RSU.sol\":259:350  function setSourceTrust(address add) public{... */\n    tag_5:\n      tag_17\n      0x04\n      dup1\n      calldatasize\n      sub\n      dup2\n      add\n      swap1\n      tag_18\n      swap2\n      swap1\n      tag_19\n      jump\t// in\n    tag_18:\n      tag_20\n      jump\t// in\n    tag_17:\n      stop\n        /* \"contracts/RSU.sol\":112:142  SourceTrust public sourceTrust */\n    tag_6:\n      tag_21\n      tag_22\n      jump\t// in\n    tag_21:\n      mload(0x40)\n      tag_23\n      swap2\n      swap1\n      tag_24\n      jump\t// in\n    tag_23:\n      mload(0x40)\n      dup1\n      swap2\n      sub\n      swap1\n      return\n        /* \"contracts/RSU.sol\":579:697  function setRsuMessage(uint256 uuId, uint256 trust) public {... */\n    tag_10:\n        /* \"contracts/RSU.sol\":648:659  sourceTrust */\n      0x00\n      dup1\n      sload\n      swap1\n      0x0100\n      exp\n      swap1\n      div\n      0xffffffffffffffffffffffffffffffffffffffff\n      and\n        /* \"contracts/RSU.sol\":648:677  sourceTrust.updateSourceTrust */\n      0xffffffffffffffffffffffffffffffffffffffff\n      and\n      0x9e420524\n        /* \"contracts/RSU.sol\":678:682  uuId */\n      dup4\n        /* \"contracts/RSU.sol\":684:689  trust */\n      dup4\n        /* \"contracts/RSU.sol\":648:690  sourceTrust.updateSourceTrust(uuId, trust) */\n      mload(0x40)\n      dup4\n      0xffffffff\n      and\n      0xe0\n      shl\n      dup2\n      mstore\n      0x04\n      add\n      tag_26\n      swap3\n      swap2\n      swap1\n      tag_27\n      jump\t// in\n    tag_26:\n      0x00\n      mload(0x40)\n      dup1\n      dup4\n      sub\n      dup2\n      0x00\n      dup8\n      dup1\n      extcodesize\n      iszero\n      dup1\n      iszero\n      tag_28\n      jumpi\n      0x00\n      dup1\n      revert\n    tag_28:\n      pop\n      gas\n      call\n      iszero\n      dup1\n      iszero\n      tag_30\n      jumpi\n      returndatasize\n      0x00\n      dup1\n      returndatacopy\n      revert(0x00, returndatasize)\n    tag_30:\n      pop\n      pop\n      pop\n      pop\n        /* \"contracts/RSU.sol\":579:697  function setRsuMessage(uint256 uuId, uint256 trust) public {... */\n      pop\n      pop\n      jump\t// out\n        /* \"contracts/RSU.sol\":355:574  function getRsuMessage(uint256 uuId) public view returns (uint, uint, string memory) {... */\n    tag_14:\n        /* \"contracts/RSU.sol\":413:417  uint */\n      0x00\n        /* \"contracts/RSU.sol\":419:423  uint */\n      dup1\n        /* \"contracts/RSU.sol\":425:438  string memory */\n      0x60\n        /* \"contracts/RSU.sol\":450:463  uint256 trust */\n      0x00\n        /* \"contracts/RSU.sol\":466:477  sourceTrust */\n      dup1\n      0x00\n      swap1\n      sload\n      swap1\n      0x0100\n      exp\n      swap1\n      div\n      0xffffffffffffffffffffffffffffffffffffffff\n      and\n        /* \"contracts/RSU.sol\":466:492  sourceTrust.getSourceTrust */\n      0xffffffffffffffffffffffffffffffffffffffff\n      and\n      0x7cf736e0\n        /* \"contracts/RSU.sol\":493:497  uuId */\n      dup7\n        /* \"contracts/RSU.sol\":466:498  sourceTrust.getSourceTrust(uuId) */\n      mload(0x40)\n      dup3\n      0xffffffff\n      and\n      0xe0\n      shl\n      dup2\n      mstore\n      0x04\n      add\n      tag_32\n      swap2\n      swap1\n      tag_33\n      jump\t// in\n    tag_32:\n      0x20\n      mload(0x40)\n      dup1\n      dup4\n      sub\n      dup2\n      dup7\n      gas\n      staticcall\n      iszero\n      dup1\n      iszero\n      tag_35\n      jumpi\n      returndatasize\n      0x00\n      dup1\n      returndatacopy\n      revert(0x00, returndatasize)\n    tag_35:\n      pop\n      pop\n      pop\n      pop\n      mload(0x40)\n      returndatasize\n      not(0x1f)\n      0x1f\n      dup3\n      add\n      and\n      dup3\n      add\n      dup1\n      0x40\n      mstore\n      pop\n      dup2\n      add\n      swap1\n      tag_36\n      swap2\n      swap1\n      tag_37\n      jump\t// in\n    tag_36:\n        /* \"contracts/RSU.sol\":450:498  uint256 trust = sourceTrust.getSourceTrust(uuId) */\n      swap1\n      pop\n        /* \"contracts/RSU.sol\":516:521  trust */\n      dup1\n        /* \"contracts/RSU.sol\":524:526  10 */\n      0x0a\n        /* \"contracts/RSU.sol\":537:538  0 */\n      0x00\n        /* \"contracts/RSU.sol\":528:533  trust */\n      dup4\n        /* \"contracts/RSU.sol\":528:538  trust != 0 */\n      sub\n        /* \"contracts/RSU.sol\":528:566  trust != 0  ? \"legitimate\" : \"revoked\" */\n      tag_38\n      jumpi\n      mload(0x40)\n      dup1\n      0x40\n      add\n      0x40\n      mstore\n      dup1\n      0x07\n      dup2\n      mstore\n      0x20\n      add\n      0x7265766f6b656400000000000000000000000000000000000000000000000000\n      dup2\n      mstore\n      pop\n      jump(tag_39)\n    tag_38:\n      mload(0x40)\n      dup1\n      0x40\n      add\n      0x40\n      mstore\n      dup1\n      0x0a\n      dup2\n      mstore\n      0x20\n      add\n      0x6c65676974696d61746500000000000000000000000000000000000000000000\n      dup2\n      mstore\n      pop\n    tag_39:\n        /* \"contracts/RSU.sol\":508:567  return (trust , 10, trust != 0  ? \"legitimate\" : \"revoked\") */\n      swap4\n      pop\n      swap4\n      pop\n      swap4\n      pop\n      pop\n        /* \"contracts/RSU.sol\":355:574  function getRsuMessage(uint256 uuId) public view returns (uint, uint, string memory) {... */\n      swap2\n      swap4\n      swap1\n      swap3\n      pop\n      jump\t// out\n        /* \"contracts/RSU.sol\":259:350  function setSourceTrust(address add) public{... */\n    tag_20:\n        /* \"contracts/RSU.sol\":338:341  add */\n      dup1\n        /* \"contracts/RSU.sol\":312:323  sourceTrust */\n      0x00\n      dup1\n        /* \"contracts/RSU.sol\":312:342  sourceTrust = SourceTrust(add) */\n      0x0100\n      exp\n      dup2\n      sload\n      dup2\n      0xffffffffffffffffffffffffffffffffffffffff\n      mul\n      not\n      and\n      swap1\n      dup4\n      0xffffffffffffffffffffffffffffffffffffffff\n      and\n      mul\n      or\n      swap1\n      sstore\n      pop\n        /* \"contracts/RSU.sol\":259:350  function setSourceTrust(address add) public{... */\n      pop\n      jump\t// out\n        /* \"contracts/RSU.sol\":112:142  SourceTrust public sourceTrust */\n    tag_22:\n      0x00\n      dup1\n      sload\n      swap1\n      0x0100\n      exp\n      swap1\n      div\n      0xffffffffffffffffffffffffffffffffffffffff\n      and\n      dup2\n      jump\t// out\n        /* \"#utility.yul\":88:205   */\n    tag_42:\n        /* \"#utility.yul\":197:198   */\n      0x00\n        /* \"#utility.yul\":194:195   */\n      dup1\n        /* \"#utility.yul\":187:199   */\n      revert\n        /* \"#utility.yul\":334:411   */\n    tag_44:\n        /* \"#utility.yul\":371:378   */\n      0x00\n        /* \"#utility.yul\":400:405   */\n      dup2\n        /* \"#utility.yul\":389:405   */\n      swap1\n      pop\n        /* \"#utility.yul\":334:411   */\n      swap2\n      swap1\n      pop\n      jump\t// out\n        /* \"#utility.yul\":417:539   */\n    tag_45:\n        /* \"#utility.yul\":490:514   */\n      tag_69\n        /* \"#utility.yul\":508:513   */\n      dup2\n        /* \"#utility.yul\":490:514   */\n      tag_44\n      jump\t// in\n    tag_69:\n        /* \"#utility.yul\":483:488   */\n      dup2\n        /* \"#utility.yul\":480:515   */\n      eq\n        /* \"#utility.yul\":470:533   */\n      tag_70\n      jumpi\n        /* \"#utility.yul\":529:530   */\n      0x00\n        /* \"#utility.yul\":526:527   */\n      dup1\n        /* \"#utility.yul\":519:531   */\n      revert\n        /* \"#utility.yul\":470:533   */\n    tag_70:\n        /* \"#utility.yul\":417:539   */\n      pop\n      jump\t// out\n        /* \"#utility.yul\":545:684   */\n    tag_46:\n        /* \"#utility.yul\":591:596   */\n      0x00\n        /* \"#utility.yul\":629:635   */\n      dup2\n        /* \"#utility.yul\":616:636   */\n      calldataload\n        /* \"#utility.yul\":607:636   */\n      swap1\n      pop\n        /* \"#utility.yul\":645:678   */\n      tag_72\n        /* \"#utility.yul\":672:677   */\n      dup2\n        /* \"#utility.yul\":645:678   */\n      tag_45\n      jump\t// in\n    tag_72:\n        /* \"#utility.yul\":545:684   */\n      swap3\n      swap2\n      pop\n      pop\n      jump\t// out\n        /* \"#utility.yul\":690:1164   */\n    tag_9:\n        /* \"#utility.yul\":758:764   */\n      0x00\n        /* \"#utility.yul\":766:772   */\n      dup1\n        /* \"#utility.yul\":815:817   */\n      0x40\n        /* \"#utility.yul\":803:812   */\n      dup4\n        /* \"#utility.yul\":794:801   */\n      dup6\n        /* \"#utility.yul\":790:813   */\n      sub\n        /* \"#utility.yul\":786:818   */\n      slt\n        /* \"#utility.yul\":783:902   */\n      iszero\n      tag_74\n      jumpi\n        /* \"#utility.yul\":821:900   */\n      tag_75\n      tag_42\n      jump\t// in\n    tag_75:\n        /* \"#utility.yul\":783:902   */\n    tag_74:\n        /* \"#utility.yul\":941:942   */\n      0x00\n        /* \"#utility.yul\":966:1019   */\n      tag_76\n        /* \"#utility.yul\":1011:1018   */\n      dup6\n        /* \"#utility.yul\":1002:1008   */\n      dup3\n        /* \"#utility.yul\":991:1000   */\n      dup7\n        /* \"#utility.yul\":987:1009   */\n      add\n        /* \"#utility.yul\":966:1019   */\n      tag_46\n      jump\t// in\n    tag_76:\n        /* \"#utility.yul\":956:1019   */\n      swap3\n      pop\n        /* \"#utility.yul\":912:1029   */\n      pop\n        /* \"#utility.yul\":1068:1070   */\n      0x20\n        /* \"#utility.yul\":1094:1147   */\n      tag_77\n        /* \"#utility.yul\":1139:1146   */\n      dup6\n        /* \"#utility.yul\":1130:1136   */\n      dup3\n        /* \"#utility.yul\":1119:1128   */\n      dup7\n        /* \"#utility.yul\":1115:1137   */\n      add\n        /* \"#utility.yul\":1094:1147   */\n      tag_46\n      jump\t// in\n    tag_77:\n        /* \"#utility.yul\":1084:1147   */\n      swap2\n      pop\n        /* \"#utility.yul\":1039:1157   */\n      pop\n        /* \"#utility.yul\":690:1164   */\n      swap3\n      pop\n      swap3\n      swap1\n      pop\n      jump\t// out\n        /* \"#utility.yul\":1170:1499   */\n    tag_13:\n        /* \"#utility.yul\":1229:1235   */\n      0x00\n        /* \"#utility.yul\":1278:1280   */\n      0x20\n        /* \"#utility.yul\":1266:1275   */\n      dup3\n        /* \"#utility.yul\":1257:1264   */\n      dup5\n        /* \"#utility.yul\":1253:1276   */\n      sub\n        /* \"#utility.yul\":1249:1281   */\n      slt\n        /* \"#utility.yul\":1246:1365   */\n      iszero\n      tag_79\n      jumpi\n        /* \"#utility.yul\":1284:1363   */\n      tag_80\n      tag_42\n      jump\t// in\n    tag_80:\n        /* \"#utility.yul\":1246:1365   */\n    tag_79:\n        /* \"#utility.yul\":1404:1405   */\n      0x00\n        /* \"#utility.yul\":1429:1482   */\n      tag_81\n        /* \"#utility.yul\":1474:1481   */\n      dup5\n        /* \"#utility.yul\":1465:1471   */\n      dup3\n        /* \"#utility.yul\":1454:1463   */\n      dup6\n        /* \"#utility.yul\":1450:1472   */\n      add\n        /* \"#utility.yul\":1429:1482   */\n      tag_46\n      jump\t// in\n    tag_81:\n        /* \"#utility.yul\":1419:1482   */\n      swap2\n      pop\n        /* \"#utility.yul\":1375:1492   */\n      pop\n        /* \"#utility.yul\":1170:1499   */\n      swap3\n      swap2\n      pop\n      pop\n      jump\t// out\n        /* \"#utility.yul\":1505:1623   */\n    tag_47:\n        /* \"#utility.yul\":1592:1616   */\n      tag_83\n        /* \"#utility.yul\":1610:1615   */\n      dup2\n        /* \"#utility.yul\":1592:1616   */\n      tag_44\n      jump\t// in\n    tag_83:\n        /* \"#utility.yul\":1587:1590   */\n      dup3\n        /* \"#utility.yul\":1580:1617   */\n      mstore\n        /* \"#utility.yul\":1505:1623   */\n      pop\n      pop\n      jump\t// out\n        /* \"#utility.yul\":1629:1728   */\n    tag_48:\n        /* \"#utility.yul\":1681:1687   */\n      0x00\n        /* \"#utility.yul\":1715:1720   */\n      dup2\n        /* \"#utility.yul\":1709:1721   */\n      mload\n        /* \"#utility.yul\":1699:1721   */\n      swap1\n      pop\n        /* \"#utility.yul\":1629:1728   */\n      swap2\n      swap1\n      pop\n      jump\t// out\n        /* \"#utility.yul\":1734:1903   */\n    tag_49:\n        /* \"#utility.yul\":1818:1829   */\n      0x00\n        /* \"#utility.yul\":1852:1858   */\n      dup3\n        /* \"#utility.yul\":1847:1850   */\n      dup3\n        /* \"#utility.yul\":1840:1859   */\n      mstore\n        /* \"#utility.yul\":1892:1896   */\n      0x20\n        /* \"#utility.yul\":1887:1890   */\n      dup3\n        /* \"#utility.yul\":1883:1897   */\n      add\n        /* \"#utility.yul\":1868:1897   */\n      swap1\n      pop\n        /* \"#utility.yul\":1734:1903   */\n      swap3\n      swap2\n      pop\n      pop\n      jump\t// out\n        /* \"#utility.yul\":1909:2155   */\n    tag_50:\n        /* \"#utility.yul\":1990:1991   */\n      0x00\n        /* \"#utility.yul\":2000:2113   */\n    tag_87:\n        /* \"#utility.yul\":2014:2020   */\n      dup4\n        /* \"#utility.yul\":2011:2012   */\n      dup2\n        /* \"#utility.yul\":2008:2021   */\n      lt\n        /* \"#utility.yul\":2000:2113   */\n      iszero\n      tag_89\n      jumpi\n        /* \"#utility.yul\":2099:2100   */\n      dup1\n        /* \"#utility.yul\":2094:2097   */\n      dup3\n        /* \"#utility.yul\":2090:2101   */\n      add\n        /* \"#utility.yul\":2084:2102   */\n      mload\n        /* \"#utility.yul\":2080:2081   */\n      dup2\n        /* \"#utility.yul\":2075:2078   */\n      dup5\n        /* \"#utility.yul\":2071:2082   */\n      add\n        /* \"#utility.yul\":2064:2103   */\n      mstore\n        /* \"#utility.yul\":2036:2038   */\n      0x20\n        /* \"#utility.yul\":2033:2034   */\n      dup2\n        /* \"#utility.yul\":2029:2039   */\n      add\n        /* \"#utility.yul\":2024:2039   */\n      swap1\n      pop\n        /* \"#utility.yul\":2000:2113   */\n      jump(tag_87)\n    tag_89:\n        /* \"#utility.yul\":2147:2148   */\n      0x00\n        /* \"#utility.yul\":2138:2144   */\n      dup5\n        /* \"#utility.yul\":2133:2136   */\n      dup5\n        /* \"#utility.yul\":2129:2145   */\n      add\n        /* \"#utility.yul\":2122:2149   */\n      mstore\n        /* \"#utility.yul\":1971:2155   */\n      pop\n        /* \"#utility.yul\":1909:2155   */\n      pop\n      pop\n      pop\n      jump\t// out\n        /* \"#utility.yul\":2161:2263   */\n    tag_51:\n        /* \"#utility.yul\":2202:2208   */\n      0x00\n        /* \"#utility.yul\":2253:2255   */\n      0x1f\n        /* \"#utility.yul\":2249:2256   */\n      not\n        /* \"#utility.yul\":2244:2246   */\n      0x1f\n        /* \"#utility.yul\":2237:2242   */\n      dup4\n        /* \"#utility.yul\":2233:2247   */\n      add\n        /* \"#utility.yul\":2229:2257   */\n      and\n        /* \"#utility.yul\":2219:2257   */\n      swap1\n      pop\n        /* \"#utility.yul\":2161:2263   */\n      swap2\n      swap1\n      pop\n      jump\t// out\n        /* \"#utility.yul\":2269:2646   */\n    tag_52:\n        /* \"#utility.yul\":2357:2360   */\n      0x00\n        /* \"#utility.yul\":2385:2424   */\n      tag_92\n        /* \"#utility.yul\":2418:2423   */\n      dup3\n        /* \"#utility.yul\":2385:2424   */\n      tag_48\n      jump\t// in\n    tag_92:\n        /* \"#utility.yul\":2440:2511   */\n      tag_93\n        /* \"#utility.yul\":2504:2510   */\n      dup2\n        /* \"#utility.yul\":2499:2502   */\n      dup6\n        /* \"#utility.yul\":2440:2511   */\n      tag_49\n      jump\t// in\n    tag_93:\n        /* \"#utility.yul\":2433:2511   */\n      swap4\n      pop\n        /* \"#utility.yul\":2520:2585   */\n      tag_94\n        /* \"#utility.yul\":2578:2584   */\n      dup2\n        /* \"#utility.yul\":2573:2576   */\n      dup6\n        /* \"#utility.yul\":2566:2570   */\n      0x20\n        /* \"#utility.yul\":2559:2564   */\n      dup7\n        /* \"#utility.yul\":2555:2571   */\n      add\n        /* \"#utility.yul\":2520:2585   */\n      tag_50\n      jump\t// in\n    tag_94:\n        /* \"#utility.yul\":2610:2639   */\n      tag_95\n        /* \"#utility.yul\":2632:2638   */\n      dup2\n        /* \"#utility.yul\":2610:2639   */\n      tag_51\n      jump\t// in\n    tag_95:\n        /* \"#utility.yul\":2605:2608   */\n      dup5\n        /* \"#utility.yul\":2601:2640   */\n      add\n        /* \"#utility.yul\":2594:2640   */\n      swap2\n      pop\n        /* \"#utility.yul\":2361:2646   */\n      pop\n        /* \"#utility.yul\":2269:2646   */\n      swap3\n      swap2\n      pop\n      pop\n      jump\t// out\n        /* \"#utility.yul\":2652:3185   */\n    tag_16:\n        /* \"#utility.yul\":2821:2825   */\n      0x00\n        /* \"#utility.yul\":2859:2861   */\n      0x60\n        /* \"#utility.yul\":2848:2857   */\n      dup3\n        /* \"#utility.yul\":2844:2862   */\n      add\n        /* \"#utility.yul\":2836:2862   */\n      swap1\n      pop\n        /* \"#utility.yul\":2872:2943   */\n      tag_97\n        /* \"#utility.yul\":2940:2941   */\n      0x00\n        /* \"#utility.yul\":2929:2938   */\n      dup4\n        /* \"#utility.yul\":2925:2942   */\n      add\n        /* \"#utility.yul\":2916:2922   */\n      dup7\n        /* \"#utility.yul\":2872:2943   */\n      tag_47\n      jump\t// in\n    tag_97:\n        /* \"#utility.yul\":2953:3025   */\n      tag_98\n        /* \"#utility.yul\":3021:3023   */\n      0x20\n        /* \"#utility.yul\":3010:3019   */\n      dup4\n        /* \"#utility.yul\":3006:3024   */\n      add\n        /* \"#utility.yul\":2997:3003   */\n      dup6\n        /* \"#utility.yul\":2953:3025   */\n      tag_47\n      jump\t// in\n    tag_98:\n        /* \"#utility.yul\":3072:3081   */\n      dup2\n        /* \"#utility.yul\":3066:3070   */\n      dup2\n        /* \"#utility.yul\":3062:3082   */\n      sub\n        /* \"#utility.yul\":3057:3059   */\n      0x40\n        /* \"#utility.yul\":3046:3055   */\n      dup4\n        /* \"#utility.yul\":3042:3060   */\n      add\n        /* \"#utility.yul\":3035:3083   */\n      mstore\n        /* \"#utility.yul\":3100:3178   */\n      tag_99\n        /* \"#utility.yul\":3173:3177   */\n      dup2\n        /* \"#utility.yul\":3164:3170   */\n      dup5\n        /* \"#utility.yul\":3100:3178   */\n      tag_52\n      jump\t// in\n    tag_99:\n        /* \"#utility.yul\":3092:3178   */\n      swap1\n      pop\n        /* \"#utility.yul\":2652:3185   */\n      swap5\n      swap4\n      pop\n      pop\n      pop\n      pop\n      jump\t// out\n        /* \"#utility.yul\":3191:3317   */\n    tag_53:\n        /* \"#utility.yul\":3228:3235   */\n      0x00\n        /* \"#utility.yul\":3268:3310   */\n      0xffffffffffffffffffffffffffffffffffffffff\n        /* \"#utility.yul\":3261:3266   */\n      dup3\n        /* \"#utility.yul\":3257:3311   */\n      and\n        /* \"#utility.yul\":3246:3311   */\n      swap1\n      pop\n        /* \"#utility.yul\":3191:3317   */\n      swap2\n      swap1\n      pop\n      jump\t// out\n        /* \"#utility.yul\":3323:3419   */\n    tag_54:\n        /* \"#utility.yul\":3360:3367   */\n      0x00\n        /* \"#utility.yul\":3389:3413   */\n      tag_102\n        /* \"#utility.yul\":3407:3412   */\n      dup3\n        /* \"#utility.yul\":3389:3413   */\n      tag_53\n      jump\t// in\n    tag_102:\n        /* \"#utility.yul\":3378:3413   */\n      swap1\n      pop\n        /* \"#utility.yul\":3323:3419   */\n      swap2\n      swap1\n      pop\n      jump\t// out\n        /* \"#utility.yul\":3425:3547   */\n    tag_55:\n        /* \"#utility.yul\":3498:3522   */\n      tag_104\n        /* \"#utility.yul\":3516:3521   */\n      dup2\n        /* \"#utility.yul\":3498:3522   */\n      tag_54\n      jump\t// in\n    tag_104:\n        /* \"#utility.yul\":3491:3496   */\n      dup2\n        /* \"#utility.yul\":3488:3523   */\n      eq\n        /* \"#utility.yul\":3478:3541   */\n      tag_105\n      jumpi\n        /* \"#utility.yul\":3537:3538   */\n      0x00\n        /* \"#utility.yul\":3534:3535   */\n      dup1\n        /* \"#utility.yul\":3527:3539   */\n      revert\n        /* \"#utility.yul\":3478:3541   */\n    tag_105:\n        /* \"#utility.yul\":3425:3547   */\n      pop\n      jump\t// out\n        /* \"#utility.yul\":3553:3692   */\n    tag_56:\n        /* \"#utility.yul\":3599:3604   */\n      0x00\n        /* \"#utility.yul\":3637:3643   */\n      dup2\n        /* \"#utility.yul\":3624:3644   */\n      calldataload\n        /* \"#utility.yul\":3615:3644   */\n      swap1\n      pop\n        /* \"#utility.yul\":3653:3686   */\n      tag_107\n        /* \"#utility.yul\":3680:3685   */\n      dup2\n        /* \"#utility.yul\":3653:3686   */\n      tag_55\n      jump\t// in\n    tag_107:\n        /* \"#utility.yul\":3553:3692   */\n      swap3\n      swap2\n      pop\n      pop\n      jump\t// out\n        /* \"#utility.yul\":3698:4027   */\n    tag_19:\n        /* \"#utility.yul\":3757:3763   */\n      0x00\n        /* \"#utility.yul\":3806:3808   */\n      0x20\n        /* \"#utility.yul\":3794:3803   */\n      dup3\n        /* \"#utility.yul\":3785:3792   */\n      dup5\n        /* \"#utility.yul\":3781:3804   */\n      sub\n        /* \"#utility.yul\":3777:3809   */\n      slt\n        /* \"#utility.yul\":3774:3893   */\n      iszero\n      tag_109\n      jumpi\n        /* \"#utility.yul\":3812:3891   */\n      tag_110\n      tag_42\n      jump\t// in\n    tag_110:\n        /* \"#utility.yul\":3774:3893   */\n    tag_109:\n        /* \"#utility.yul\":3932:3933   */\n      0x00\n        /* \"#utility.yul\":3957:4010   */\n      tag_111\n        /* \"#utility.yul\":4002:4009   */\n      dup5\n        /* \"#utility.yul\":3993:3999   */\n      dup3\n        /* \"#utility.yul\":3982:3991   */\n      dup6\n        /* \"#utility.yul\":3978:4000   */\n      add\n        /* \"#utility.yul\":3957:4010   */\n      tag_56\n      jump\t// in\n    tag_111:\n        /* \"#utility.yul\":3947:4010   */\n      swap2\n      pop\n        /* \"#utility.yul\":3903:4020   */\n      pop\n        /* \"#utility.yul\":3698:4027   */\n      swap3\n      swap2\n      pop\n      pop\n      jump\t// out\n        /* \"#utility.yul\":4033:4093   */\n    tag_57:\n        /* \"#utility.yul\":4061:4064   */\n      0x00\n        /* \"#utility.yul\":4082:4087   */\n      dup2\n        /* \"#utility.yul\":4075:4087   */\n      swap1\n      pop\n        /* \"#utility.yul\":4033:4093   */\n      swap2\n      swap1\n      pop\n      jump\t// out\n        /* \"#utility.yul\":4099:4241   */\n    tag_58:\n        /* \"#utility.yul\":4149:4158   */\n      0x00\n        /* \"#utility.yul\":4182:4235   */\n      tag_114\n        /* \"#utility.yul\":4200:4234   */\n      tag_115\n        /* \"#utility.yul\":4209:4233   */\n      tag_116\n        /* \"#utility.yul\":4227:4232   */\n      dup5\n        /* \"#utility.yul\":4209:4233   */\n      tag_53\n      jump\t// in\n    tag_116:\n        /* \"#utility.yul\":4200:4234   */\n      tag_57\n      jump\t// in\n    tag_115:\n        /* \"#utility.yul\":4182:4235   */\n      tag_53\n      jump\t// in\n    tag_114:\n        /* \"#utility.yul\":4169:4235   */\n      swap1\n      pop\n        /* \"#utility.yul\":4099:4241   */\n      swap2\n      swap1\n      pop\n      jump\t// out\n        /* \"#utility.yul\":4247:4373   */\n    tag_59:\n        /* \"#utility.yul\":4297:4306   */\n      0x00\n        /* \"#utility.yul\":4330:4367   */\n      tag_118\n        /* \"#utility.yul\":4361:4366   */\n      dup3\n        /* \"#utility.yul\":4330:4367   */\n      tag_58\n      jump\t// in\n    tag_118:\n        /* \"#utility.yul\":4317:4367   */\n      swap1\n      pop\n        /* \"#utility.yul\":4247:4373   */\n      swap2\n      swap1\n      pop\n      jump\t// out\n        /* \"#utility.yul\":4379:4524   */\n    tag_60:\n        /* \"#utility.yul\":4448:4457   */\n      0x00\n        /* \"#utility.yul\":4481:4518   */\n      tag_120\n        /* \"#utility.yul\":4512:4517   */\n      dup3\n        /* \"#utility.yul\":4481:4518   */\n      tag_59\n      jump\t// in\n    tag_120:\n        /* \"#utility.yul\":4468:4518   */\n      swap1\n      pop\n        /* \"#utility.yul\":4379:4524   */\n      swap2\n      swap1\n      pop\n      jump\t// out\n        /* \"#utility.yul\":4530:4699   */\n    tag_61:\n        /* \"#utility.yul\":4636:4692   */\n      tag_122\n        /* \"#utility.yul\":4686:4691   */\n      dup2\n        /* \"#utility.yul\":4636:4692   */\n      tag_60\n      jump\t// in\n    tag_122:\n        /* \"#utility.yul\":4631:4634   */\n      dup3\n        /* \"#utility.yul\":4624:4693   */\n      mstore\n        /* \"#utility.yul\":4530:4699   */\n      pop\n      pop\n      jump\t// out\n        /* \"#utility.yul\":4705:4965   */\n    tag_24:\n        /* \"#utility.yul\":4817:4821   */\n      0x00\n        /* \"#utility.yul\":4855:4857   */\n      0x20\n        /* \"#utility.yul\":4844:4853   */\n      dup3\n        /* \"#utility.yul\":4840:4858   */\n      add\n        /* \"#utility.yul\":4832:4858   */\n      swap1\n      pop\n        /* \"#utility.yul\":4868:4958   */\n      tag_124\n        /* \"#utility.yul\":4955:4956   */\n      0x00\n        /* \"#utility.yul\":4944:4953   */\n      dup4\n        /* \"#utility.yul\":4940:4957   */\n      add\n        /* \"#utility.yul\":4931:4937   */\n      dup5\n        /* \"#utility.yul\":4868:4958   */\n      tag_61\n      jump\t// in\n    tag_124:\n        /* \"#utility.yul\":4705:4965   */\n      swap3\n      swap2\n      pop\n      pop\n      jump\t// out\n        /* \"#utility.yul\":4971:5303   */\n    tag_27:\n        /* \"#utility.yul\":5092:5096   */\n      0x00\n        /* \"#utility.yul\":5130:5132   */\n      0x40\n        /* \"#utility.yul\":5119:5128   */\n      dup3\n        /* \"#utility.yul\":5115:5133   */\n      add\n        /* \"#utility.yul\":5107:5133   */\n      swap1\n      pop\n        /* \"#utility.yul\":5143:5214   */\n      tag_126\n        /* \"#utility.yul\":5211:5212   */\n      0x00\n        /* \"#utility.yul\":5200:5209   */\n      dup4\n        /* \"#utility.yul\":5196:5213   */\n      add\n        /* \"#utility.yul\":5187:5193   */\n      dup6\n        /* \"#utility.yul\":5143:5214   */\n      tag_47\n      jump\t// in\n    tag_126:\n        /* \"#utility.yul\":5224:5296   */\n      tag_127\n        /* \"#utility.yul\":5292:5294   */\n      0x20\n        /* \"#utility.yul\":5281:5290   */\n      dup4\n        /* \"#utility.yul\":5277:5295   */\n      add\n        /* \"#utility.yul\":5268:5274   */\n      dup5\n        /* \"#utility.yul\":5224:5296   */\n      tag_47\n      jump\t// in\n    tag_127:\n        /* \"#utility.yul\":4971:5303   */\n      swap4\n      swap3\n      pop\n      pop\n      pop\n      jump\t// out\n        /* \"#utility.yul\":5309:5531   */\n    tag_33:\n        /* \"#utility.yul\":5402:5406   */\n      0x00\n        /* \"#utility.yul\":5440:5442   */\n      0x20\n        /* \"#utility.yul\":5429:5438   */\n      dup3\n        /* \"#utility.yul\":5425:5443   */\n      add\n        /* \"#utility.yul\":5417:5443   */\n      swap1\n      pop\n        /* \"#utility.yul\":5453:5524   */\n      tag_129\n        /* \"#utility.yul\":5521:5522   */\n      0x00\n        /* \"#utility.yul\":5510:5519   */\n      dup4\n        /* \"#utility.yul\":5506:5523   */\n      add\n        /* \"#utility.yul\":5497:5503   */\n      dup5\n        /* \"#utility.yul\":5453:5524   */\n      tag_47\n      jump\t// in\n    tag_129:\n        /* \"#utility.yul\":5309:5531   */\n      swap3\n      swap2\n      pop\n      pop\n      jump\t// out\n        /* \"#utility.yul\":5537:5680   */\n    tag_62:\n        /* \"#utility.yul\":5594:5599   */\n      0x00\n        /* \"#utility.yul\":5625:5631   */\n      dup2\n        /* \"#utility.yul\":5619:5632   */\n      mload\n        /* \"#utility.yul\":5610:5632   */\n      swap1\n      pop\n        /* \"#utility.yul\":5641:5674   */\n      tag_131\n        /* \"#utility.yul\":5668:5673   */\n      dup2\n        /* \"#utility.yul\":5641:5674   */\n      tag_45\n      jump\t// in\n    tag_131:\n        /* \"#utility.yul\":5537:5680   */\n      swap3\n      swap2\n      pop\n      pop\n      jump\t// out\n        /* \"#utility.yul\":5686:6037   */\n    tag_37:\n        /* \"#utility.yul\":5756:5762   */\n      0x00\n        /* \"#utility.yul\":5805:5807   */\n      0x20\n        /* \"#utility.yul\":5793:5802   */\n      dup3\n        /* \"#utility.yul\":5784:5791   */\n      dup5\n        /* \"#utility.yul\":5780:5803   */\n      sub\n        /* \"#utility.yul\":5776:5808   */\n      slt\n        /* \"#utility.yul\":5773:5892   */\n      iszero\n      tag_133\n      jumpi\n        /* \"#utility.yul\":5811:5890   */\n      tag_134\n      tag_42\n      jump\t// in\n    tag_134:\n        /* \"#utility.yul\":5773:5892   */\n    tag_133:\n        /* \"#utility.yul\":5931:5932   */\n      0x00\n        /* \"#utility.yul\":5956:6020   */\n      tag_135\n        /* \"#utility.yul\":6012:6019   */\n      dup5\n        /* \"#utility.yul\":6003:6009   */\n      dup3\n        /* \"#utility.yul\":5992:6001   */\n      dup6\n        /* \"#utility.yul\":5988:6010   */\n      add\n        /* \"#utility.yul\":5956:6020   */\n      tag_62\n      jump\t// in\n    tag_135:\n        /* \"#utility.yul\":5946:6020   */\n      swap2\n      pop\n        /* \"#utility.yul\":5902:6030   */\n      pop\n        /* \"#utility.yul\":5686:6037   */\n      swap3\n      swap2\n      pop\n      pop\n      jump\t// out\n\n    auxdata: 0xa26469706673582212204171e8e5f107dd07ee1a8e63e8f63c393703828954df745175a49c16c42bd65964736f6c63430008120033\n}\n\nsub_1: assembly {\n        /* \"contracts/trust_store.sol\":65:1721  contract SourceTrust {... */\n      mstore(0x40, 0x80)\n        /* \"contracts/trust_store.sol\":296:335  constructor(){... */\n      callvalue\n      dup1\n      iszero\n      tag_1\n      jumpi\n      0x00\n      dup1\n      revert\n    tag_1:\n      pop\n        /* \"contracts/trust_store.sol\":326:327  1 */\n      0x01\n        /* \"contracts/trust_store.sol\":319:323  uuid */\n      0x00\n        /* \"contracts/trust_store.sol\":319:327  uuid = 1 */\n      dup2\n      swap1\n      sstore\n      pop\n        /* \"contracts/trust_store.sol\":65:1721  contract SourceTrust {... */\n      dataSize(sub_0)\n      dup1\n      dataOffset(sub_0)\n      0x00\n      codecopy\n      0x00\n      return\n    stop\n\n    sub_0: assembly {\n            /* \"contracts/trust_store.sol\":65:1721  contract SourceTrust {... */\n          mstore(0x40, 0x80)\n          callvalue\n          dup1\n          iszero\n          tag_1\n          jumpi\n          0x00\n          dup1\n          revert\n        tag_1:\n          pop\n          jumpi(tag_2, lt(calldatasize, 0x04))\n          shr(0xe0, calldataload(0x00))\n          dup1\n          0x1ae8579c\n          eq\n          tag_3\n          jumpi\n          dup1\n          0x7cf736e0\n          eq\n          tag_4\n          jumpi\n          dup1\n          0x9e420524\n          eq\n          tag_5\n          jumpi\n          dup1\n          0xdab98e64\n          eq\n          tag_6\n          jumpi\n          dup1\n          0xe6b7e207\n          eq\n          tag_7\n          jumpi\n        tag_2:\n          0x00\n          dup1\n          revert\n            /* \"contracts/trust_store.sol\":1460:1619  function setSampleVehicles() public {... */\n        tag_3:\n          tag_8\n          tag_9\n          jump\t// in\n        tag_8:\n          stop\n            /* \"contracts/trust_store.sol\":1127:1302  function getSourceTrust(uint256 uuId) public view returns (uint256) {... */\n        tag_4:\n          tag_10\n          0x04\n          dup1\n          calldatasize\n          sub\n          dup2\n          add\n          swap1\n          tag_11\n          swap2\n          swap1\n          tag_12\n          jump\t// in\n        tag_11:\n          tag_13\n          jump\t// in\n        tag_10:\n          mload(0x40)\n          tag_14\n          swap2\n          swap1\n          tag_15\n          jump\t// in\n        tag_14:\n          mload(0x40)\n          dup1\n          swap2\n          sub\n          swap1\n          return\n            /* \"contracts/trust_store.sol\":388:771  function updateSourceTrust(uint256 uuId, uint256 trust) public{... */\n        tag_5:\n          tag_16\n          0x04\n          dup1\n          calldatasize\n          sub\n          dup2\n          add\n          swap1\n          tag_17\n          swap2\n          swap1\n          tag_18\n          jump\t// in\n        tag_17:\n          tag_19\n          jump\t// in\n        tag_16:\n          stop\n            /* \"contracts/trust_store.sol\":1307:1455  function addVehicle(string memory vehicleNumber) public returns (uint){... */\n        tag_6:\n          tag_20\n          0x04\n          dup1\n          calldatasize\n          sub\n          dup2\n          add\n          swap1\n          tag_21\n          swap2\n          swap1\n          tag_22\n          jump\t// in\n        tag_21:\n          tag_23\n          jump\t// in\n        tag_20:\n          mload(0x40)\n          tag_24\n          swap2\n          swap1\n          tag_15\n          jump\t// in\n        tag_24:\n          mload(0x40)\n          dup1\n          swap2\n          sub\n          swap1\n          return\n            /* \"contracts/trust_store.sol\":1625:1719  function getVehicles() public view returns (uint256) {... */\n        tag_7:\n          tag_25\n          tag_26\n          jump\t// in\n        tag_25:\n          mload(0x40)\n          tag_27\n          swap2\n          swap1\n          tag_15\n          jump\t// in\n        tag_27:\n          mload(0x40)\n          dup1\n          swap2\n          sub\n          swap1\n          return\n            /* \"contracts/trust_store.sol\":1460:1619  function setSampleVehicles() public {... */\n        tag_9:\n            /* \"contracts/trust_store.sol\":1511:1520  uint256 i */\n          0x00\n            /* \"contracts/trust_store.sol\":1506:1613  for (uint256 i = 0; i < 10; i++) {... */\n        tag_29:\n            /* \"contracts/trust_store.sol\":1530:1532  10 */\n          0x0a\n            /* \"contracts/trust_store.sol\":1526:1527  i */\n          dup2\n            /* \"contracts/trust_store.sol\":1526:1532  i < 10 */\n          lt\n            /* \"contracts/trust_store.sol\":1506:1613  for (uint256 i = 0; i < 10; i++) {... */\n          iszero\n          tag_30\n          jumpi\n            /* \"contracts/trust_store.sol\":1553:1602  addVehicle(string(abi.encodePacked(\"sample\", i))) */\n          tag_32\n            /* \"contracts/trust_store.sol\":1598:1599  i */\n          dup2\n            /* \"contracts/trust_store.sol\":1571:1600  abi.encodePacked(\"sample\", i) */\n          add(0x20, mload(0x40))\n          tag_33\n          swap2\n          swap1\n          tag_34\n          jump\t// in\n        tag_33:\n          mload(0x40)\n          0x20\n          dup2\n          dup4\n          sub\n          sub\n          dup2\n          mstore\n          swap1\n          0x40\n          mstore\n            /* \"contracts/trust_store.sol\":1553:1563  addVehicle */\n          tag_23\n            /* \"contracts/trust_store.sol\":1553:1602  addVehicle(string(abi.encodePacked(\"sample\", i))) */\n          jump\t// in\n        tag_32:\n          pop\n            /* \"contracts/trust_store.sol\":1534:1537  i++ */\n          dup1\n          dup1\n          tag_35\n          swap1\n          tag_36\n          jump\t// in\n        tag_35:\n          swap2\n          pop\n          pop\n            /* \"contracts/trust_store.sol\":1506:1613  for (uint256 i = 0; i < 10; i++) {... */\n          jump(tag_29)\n        tag_30:\n          pop\n            /* \"contracts/trust_store.sol\":1460:1619  function setSampleVehicles() public {... */\n          jump\t// out\n            /* \"contracts/trust_store.sol\":1127:1302  function getSourceTrust(uint256 uuId) public view returns (uint256) {... */\n        tag_13:\n            /* \"contracts/trust_store.sol\":1186:1193  uint256 */\n          0x00\n            /* \"contracts/trust_store.sol\":1213:1220  sources */\n          0x01\n            /* \"contracts/trust_store.sol\":1213:1226  sources[uuId] */\n          0x00\n            /* \"contracts/trust_store.sol\":1221:1225  uuId */\n          dup4\n            /* \"contracts/trust_store.sol\":1213:1226  sources[uuId] */\n          dup2\n          mstore\n          0x20\n          add\n          swap1\n          dup2\n          mstore\n          0x20\n          add\n          0x00\n          keccak256\n            /* \"contracts/trust_store.sol\":1213:1233  sources[uuId].exists */\n          0x03\n          add\n          0x00\n          swap1\n          sload\n          swap1\n          0x0100\n          exp\n          swap1\n          div\n          0xff\n          and\n            /* \"contracts/trust_store.sol\":1205:1259  require(sources[uuId].exists, \"Source does not exist\") */\n          tag_38\n          jumpi\n          mload(0x40)\n          0x08c379a000000000000000000000000000000000000000000000000000000000\n          dup2\n          mstore\n          0x04\n          add\n          tag_39\n          swap1\n          tag_40\n          jump\t// in\n        tag_39:\n          mload(0x40)\n          dup1\n          swap2\n          sub\n          swap1\n          revert\n        tag_38:\n            /* \"contracts/trust_store.sol\":1276:1283  sources */\n          0x01\n            /* \"contracts/trust_store.sol\":1276:1289  sources[uuId] */\n          0x00\n            /* \"contracts/trust_store.sol\":1284:1288  uuId */\n          dup4\n            /* \"contracts/trust_store.sol\":1276:1289  sources[uuId] */\n          dup2\n          mstore\n          0x20\n          add\n          swap1\n          dup2\n          mstore\n          0x20\n          add\n          0x00\n          keccak256\n            /* \"contracts/trust_store.sol\":1276:1295  sources[uuId].trust */\n          0x00\n          add\n          sload\n            /* \"contracts/trust_store.sol\":1269:1295  return sources[uuId].trust */\n          swap1\n          pop\n            /* \"contracts/trust_store.sol\":1127:1302  function getSourceTrust(uint256 uuId) public view returns (uint256) {... */\n          swap2\n          swap1\n          pop\n          jump\t// out\n            /* \"contracts/trust_store.sol\":388:771  function updateSourceTrust(uint256 uuId, uint256 trust) public{... */\n        tag_19:\n            /* \"contracts/trust_store.sol\":468:475  sources */\n          0x01\n            /* \"contracts/trust_store.sol\":468:481  sources[uuId] */\n          0x00\n            /* \"contracts/trust_store.sol\":476:480  uuId */\n          dup4\n            /* \"contracts/trust_store.sol\":468:481  sources[uuId] */\n          dup2\n          mstore\n          0x20\n          add\n          swap1\n          dup2\n          mstore\n          0x20\n          add\n          0x00\n          keccak256\n            /* \"contracts/trust_store.sol\":468:488  sources[uuId].exists */\n          0x03\n          add\n          0x00\n          swap1\n          sload\n          swap1\n          0x0100\n          exp\n          swap1\n          div\n          0xff\n          and\n            /* \"contracts/trust_store.sol\":460:514  require(sources[uuId].exists, \"Source does not exist\") */\n          tag_42\n          jumpi\n          mload(0x40)\n          0x08c379a000000000000000000000000000000000000000000000000000000000\n          dup2\n          mstore\n          0x04\n          add\n          tag_43\n          swap1\n          tag_40\n          jump\t// in\n        tag_43:\n          mload(0x40)\n          dup1\n          swap2\n          sub\n          swap1\n          revert\n        tag_42:\n            /* \"contracts/trust_store.sol\":536:537  8 */\n          0x08\n            /* \"contracts/trust_store.sol\":527:532  trust */\n          dup2\n            /* \"contracts/trust_store.sol\":527:537  trust >= 8 */\n          lt\n            /* \"contracts/trust_store.sol\":524:727  if(trust >= 8)... */\n          tag_44\n          jumpi\n            /* \"contracts/trust_store.sol\":576:577  1 */\n          0x01\n            /* \"contracts/trust_store.sol\":551:558  sources */\n          dup1\n            /* \"contracts/trust_store.sol\":551:564  sources[uuId] */\n          0x00\n            /* \"contracts/trust_store.sol\":559:563  uuId */\n          dup5\n            /* \"contracts/trust_store.sol\":551:564  sources[uuId] */\n          dup2\n          mstore\n          0x20\n          add\n          swap1\n          dup2\n          mstore\n          0x20\n          add\n          0x00\n          keccak256\n            /* \"contracts/trust_store.sol\":551:573  sources[uuId].priority */\n          0x02\n          add\n            /* \"contracts/trust_store.sol\":551:577  sources[uuId].priority = 1 */\n          dup2\n          swap1\n          sstore\n          pop\n            /* \"contracts/trust_store.sol\":524:727  if(trust >= 8)... */\n          jump(tag_45)\n        tag_44:\n            /* \"contracts/trust_store.sol\":605:606  5 */\n          0x05\n            /* \"contracts/trust_store.sol\":596:601  trust */\n          dup2\n            /* \"contracts/trust_store.sol\":596:606  trust >= 5 */\n          lt\n            /* \"contracts/trust_store.sol\":593:727  if(trust >= 5) {... */\n          tag_46\n          jumpi\n            /* \"contracts/trust_store.sol\":647:648  0 */\n          0x00\n            /* \"contracts/trust_store.sol\":622:629  sources */\n          0x01\n            /* \"contracts/trust_store.sol\":622:635  sources[uuId] */\n          0x00\n            /* \"contracts/trust_store.sol\":630:634  uuId */\n          dup5\n            /* \"contracts/trust_store.sol\":622:635  sources[uuId] */\n          dup2\n          mstore\n          0x20\n          add\n          swap1\n          dup2\n          mstore\n          0x20\n          add\n          0x00\n          keccak256\n            /* \"contracts/trust_store.sol\":622:644  sources[uuId].priority */\n          0x02\n          add\n            /* \"contracts/trust_store.sol\":622:648  sources[uuId].priority = 0 */\n          dup2\n          swap1\n          sstore\n          pop\n            /* \"contracts/trust_store.sol\":593:727  if(trust >= 5) {... */\n          jump(tag_47)\n        tag_46:\n            /* \"contracts/trust_store.sol\":713:715  -1 */\n          0xffffffffffffffffffffffffffffffffffffffffffffffffffffffffffffffff\n            /* \"contracts/trust_store.sol\":688:695  sources */\n          0x01\n            /* \"contracts/trust_store.sol\":688:701  sources[uuId] */\n          0x00\n            /* \"contracts/trust_store.sol\":696:700  uuId */\n          dup5\n            /* \"contracts/trust_store.sol\":688:701  sources[uuId] */\n          dup2\n          mstore\n          0x20\n          add\n          swap1\n          dup2\n          mstore\n          0x20\n          add\n          0x00\n          keccak256\n            /* \"contracts/trust_store.sol\":688:710  sources[uuId].priority */\n          0x02\n          add\n            /* \"contracts/trust_store.sol\":688:715  sources[uuId].priority = -1 */\n          dup2\n          swap1\n          sstore\n          pop\n            /* \"contracts/trust_store.sol\":593:727  if(trust >= 5) {... */\n        tag_47:\n            /* \"contracts/trust_store.sol\":524:727  if(trust >= 8)... */\n        tag_45:\n            /* \"contracts/trust_store.sol\":758:763  trust */\n          dup1\n            /* \"contracts/trust_store.sol\":736:743  sources */\n          0x01\n            /* \"contracts/trust_store.sol\":736:749  sources[uuId] */\n          0x00\n            /* \"contracts/trust_store.sol\":744:748  uuId */\n          dup5\n            /* \"contracts/trust_store.sol\":736:749  sources[uuId] */\n          dup2\n          mstore\n          0x20\n          add\n          swap1\n          dup2\n          mstore\n          0x20\n          add\n          0x00\n          keccak256\n            /* \"contracts/trust_store.sol\":736:755  sources[uuId].trust */\n          0x00\n          add\n            /* \"contracts/trust_store.sol\":736:763  sources[uuId].trust = trust */\n          dup2\n          swap1\n          sstore\n          pop\n            /* \"contracts/trust_store.sol\":388:771  function updateSourceTrust(uint256 uuId, uint256 trust) public{... */\n          pop\n          pop\n          jump\t// out\n            /* \"contracts/trust_store.sol\":1307:1455  function addVehicle(string memory vehicleNumber) public returns (uint){... */\n        tag_23:\n            /* \"contracts/trust_store.sol\":1372:1376  uint */\n          0x00\n            /* \"contracts/trust_store.sol\":1387:1422  setSourceTrust(uuid, vehicleNumber) */\n          tag_49\n            /* \"contracts/trust_store.sol\":1402:1406  uuid */\n          sload(0x00)\n            /* \"contracts/trust_store.sol\":1408:1421  vehicleNumber */\n          dup4\n            /* \"contracts/trust_store.sol\":1387:1401  setSourceTrust */\n          tag_50\n            /* \"contracts/trust_store.sol\":1387:1422  setSourceTrust(uuid, vehicleNumber) */\n          jump\t// in\n        tag_49:\n            /* \"contracts/trust_store.sol\":1440:1444  uuid */\n          0x00\n          dup1\n            /* \"contracts/trust_store.sol\":1440:1447  uuid ++ */\n          dup2\n          sload\n          dup1\n          swap3\n          swap2\n          swap1\n          tag_51\n          swap1\n          tag_36\n          jump\t// in\n        tag_51:\n          swap2\n          swap1\n          pop\n          sstore\n            /* \"contracts/trust_store.sol\":1433:1447  return uuid ++ */\n          swap1\n          pop\n            /* \"contracts/trust_store.sol\":1307:1455  function addVehicle(string memory vehicleNumber) public returns (uint){... */\n          swap2\n          swap1\n          pop\n          jump\t// out\n            /* \"contracts/trust_store.sol\":1625:1719  function getVehicles() public view returns (uint256) {... */\n        tag_26:\n            /* \"contracts/trust_store.sol\":1669:1676  uint256 */\n          0x00\n            /* \"contracts/trust_store.sol\":1695:1712  getSourceTrust(0) */\n          tag_53\n            /* \"contracts/trust_store.sol\":1710:1711  0 */\n          0x00\n            /* \"contracts/trust_store.sol\":1695:1709  getSourceTrust */\n          tag_13\n            /* \"contracts/trust_store.sol\":1695:1712  getSourceTrust(0) */\n          jump\t// in\n        tag_53:\n            /* \"contracts/trust_store.sol\":1688:1712  return getSourceTrust(0) */\n          swap1\n          pop\n            /* \"contracts/trust_store.sol\":1625:1719  function getVehicles() public view returns (uint256) {... */\n          swap1\n          jump\t// out\n            /* \"contracts/trust_store.sol\":776:1121  function setSourceTrust(uint256 uuId,string memory vehicleNumber) private {... */\n        tag_50:\n            /* \"contracts/trust_store.sol\":920:943  abi.encodePacked(\"911\") */\n          add(0x20, mload(0x40))\n          tag_55\n          swap1\n          tag_56\n          jump\t// in\n        tag_55:\n          mload(0x40)\n          0x20\n          dup2\n          dup4\n          sub\n          sub\n          dup2\n          mstore\n          swap1\n          0x40\n          mstore\n            /* \"contracts/trust_store.sol\":910:944  keccak256(abi.encodePacked(\"911\")) */\n          dup1\n          mload\n          swap1\n          0x20\n          add\n          keccak256\n            /* \"contracts/trust_store.sol\":891:904  vehicleNumber */\n          dup2\n            /* \"contracts/trust_store.sol\":874:905  abi.encodePacked(vehicleNumber) */\n          add(0x20, mload(0x40))\n          tag_57\n          swap2\n          swap1\n          tag_58\n          jump\t// in\n        tag_57:\n          mload(0x40)\n          0x20\n          dup2\n          dup4\n          sub\n          sub\n          dup2\n          mstore\n          swap1\n          0x40\n          mstore\n            /* \"contracts/trust_store.sol\":864:906  keccak256(abi.encodePacked(vehicleNumber)) */\n          dup1\n          mload\n          swap1\n          0x20\n          add\n          keccak256\n            /* \"contracts/trust_store.sol\":864:944  keccak256(abi.encodePacked(vehicleNumber)) == keccak256(abi.encodePacked(\"911\")) */\n          sub\n            /* \"contracts/trust_store.sol\":860:1115  if (keccak256(abi.encodePacked(vehicleNumber)) == keccak256(abi.encodePacked(\"911\"))) {... */\n          tag_59\n          jumpi\n            /* \"contracts/trust_store.sol\":984:1016  Source(8, vehicleNumber,1, true) */\n          mload(0x40)\n          dup1\n          0x80\n          add\n          0x40\n          mstore\n          dup1\n            /* \"contracts/trust_store.sol\":991:992  8 */\n          0x08\n            /* \"contracts/trust_store.sol\":984:1016  Source(8, vehicleNumber,1, true) */\n          dup2\n          mstore\n          0x20\n          add\n            /* \"contracts/trust_store.sol\":994:1007  vehicleNumber */\n          dup3\n            /* \"contracts/trust_store.sol\":984:1016  Source(8, vehicleNumber,1, true) */\n          dup2\n          mstore\n          0x20\n          add\n            /* \"contracts/trust_store.sol\":1008:1009  1 */\n          0x01\n            /* \"contracts/trust_store.sol\":984:1016  Source(8, vehicleNumber,1, true) */\n          dup2\n          mstore\n          0x20\n          add\n            /* \"contracts/trust_store.sol\":1011:1015  true */\n          0x01\n            /* \"contracts/trust_store.sol\":984:1016  Source(8, vehicleNumber,1, true) */\n          iszero\n          iszero\n          dup2\n          mstore\n          pop\n            /* \"contracts/trust_store.sol\":968:975  sources */\n          0x01\n            /* \"contracts/trust_store.sol\":968:981  sources[uuId] */\n          0x00\n            /* \"contracts/trust_store.sol\":976:980  uuId */\n          dup5\n            /* \"contracts/trust_store.sol\":968:981  sources[uuId] */\n          dup2\n          mstore\n          0x20\n          add\n          swap1\n          dup2\n          mstore\n          0x20\n          add\n          0x00\n          keccak256\n            /* \"contracts/trust_store.sol\":968:1016  sources[uuId] = Source(8, vehicleNumber,1, true) */\n          0x00\n          dup3\n          add\n          mload\n          dup2\n          0x00\n          add\n          sstore\n          0x20\n          dup3\n          add\n          mload\n          dup2\n          0x01\n          add\n          swap1\n          dup2\n          tag_60\n          swap2\n          swap1\n          tag_61\n          jump\t// in\n        tag_60:\n          pop\n          0x40\n          dup3\n          add\n          mload\n          dup2\n          0x02\n          add\n          sstore\n          0x60\n          dup3\n          add\n          mload\n          dup2\n          0x03\n          add\n          exp(0x0100, 0x00)\n          dup2\n          sload\n          dup2\n          0xff\n          mul\n          not\n          and\n          swap1\n          dup4\n          iszero\n          iszero\n          mul\n          or\n          swap1\n          sstore\n          pop\n          swap1\n          pop\n          pop\n            /* \"contracts/trust_store.sol\":860:1115  if (keccak256(abi.encodePacked(vehicleNumber)) == keccak256(abi.encodePacked(\"911\"))) {... */\n          jump(tag_62)\n        tag_59:\n            /* \"contracts/trust_store.sol\":1071:1103  Source(5, vehicleNumber,0, true) */\n          mload(0x40)\n          dup1\n          0x80\n          add\n          0x40\n          mstore\n          dup1\n            /* \"contracts/trust_store.sol\":1078:1079  5 */\n          0x05\n            /* \"contracts/trust_store.sol\":1071:1103  Source(5, vehicleNumber,0, true) */\n          dup2\n          mstore\n          0x20\n          add\n            /* \"contracts/trust_store.sol\":1081:1094  vehicleNumber */\n          dup3\n            /* \"contracts/trust_store.sol\":1071:1103  Source(5, vehicleNumber,0, true) */\n          dup2\n          mstore\n          0x20\n          add\n            /* \"contracts/trust_store.sol\":1095:1096  0 */\n          0x00\n            /* \"contracts/trust_store.sol\":1071:1103  Source(5, vehicleNumber,0, true) */\n          dup2\n          mstore\n          0x20\n          add\n            /* \"contracts/trust_store.sol\":1098:1102  true */\n          0x01\n            /* \"contracts/trust_store.sol\":1071:1103  Source(5, vehicleNumber,0, true) */\n          iszero\n          iszero\n          dup2\n          mstore\n          pop\n            /* \"contracts/trust_store.sol\":1055:1062  sources */\n          0x01\n            /* \"contracts/trust_store.sol\":1055:1068  sources[uuId] */\n          0x00\n            /* \"contracts/trust_store.sol\":1063:1067  uuId */\n          dup5\n            /* \"contracts/trust_store.sol\":1055:1068  sources[uuId] */\n          dup2\n          mstore\n          0x20\n          add\n          swap1\n          dup2\n          mstore\n          0x20\n          add\n          0x00\n          keccak256\n            /* \"contracts/trust_store.sol\":1055:1103  sources[uuId] = Source(5, vehicleNumber,0, true) */\n          0x00\n          dup3\n          add\n          mload\n          dup2\n          0x00\n          add\n          sstore\n          0x20\n          dup3\n          add\n          mload\n          dup2\n          0x01\n          add\n          swap1\n          dup2\n          tag_63\n          swap2\n          swap1\n          tag_61\n          jump\t// in\n        tag_63:\n          pop\n          0x40\n          dup3\n          add\n          mload\n          dup2\n          0x02\n          add\n          sstore\n          0x60\n          dup3\n          add\n          mload\n          dup2\n          0x03\n          add\n          exp(0x0100, 0x00)\n          dup2\n          sload\n          dup2\n          0xff\n          mul\n          not\n          and\n          swap1\n          dup4\n          iszero\n          iszero\n          mul\n          or\n          swap1\n          sstore\n          pop\n          swap1\n          pop\n          pop\n            /* \"contracts/trust_store.sol\":860:1115  if (keccak256(abi.encodePacked(vehicleNumber)) == keccak256(abi.encodePacked(\"911\"))) {... */\n        tag_62:\n            /* \"contracts/trust_store.sol\":776:1121  function setSourceTrust(uint256 uuId,string memory vehicleNumber) private {... */\n          pop\n          pop\n          jump\t// out\n            /* \"#utility.yul\":7:82   */\n        tag_64:\n            /* \"#utility.yul\":40:46   */\n          0x00\n            /* \"#utility.yul\":73:75   */\n          0x40\n            /* \"#utility.yul\":67:76   */\n          mload\n            /* \"#utility.yul\":57:76   */\n          swap1\n          pop\n            /* \"#utility.yul\":7:82   */\n          swap1\n          jump\t// out\n            /* \"#utility.yul\":88:205   */\n        tag_65:\n            /* \"#utility.yul\":197:198   */\n          0x00\n            /* \"#utility.yul\":194:195   */\n          dup1\n            /* \"#utility.yul\":187:199   */\n          revert\n            /* \"#utility.yul\":211:328   */\n        tag_66:\n            /* \"#utility.yul\":320:321   */\n          0x00\n            /* \"#utility.yul\":317:318   */\n          dup1\n            /* \"#utility.yul\":310:322   */\n          revert\n            /* \"#utility.yul\":334:411   */\n        tag_67:\n            /* \"#utility.yul\":371:378   */\n          0x00\n            /* \"#utility.yul\":400:405   */\n          dup2\n            /* \"#utility.yul\":389:405   */\n          swap1\n          pop\n            /* \"#utility.yul\":334:411   */\n          swap2\n          swap1\n          pop\n          jump\t// out\n            /* \"#utility.yul\":417:539   */\n        tag_68:\n            /* \"#utility.yul\":490:514   */\n          tag_118\n            /* \"#utility.yul\":508:513   */\n          dup2\n            /* \"#utility.yul\":490:514   */\n          tag_67\n          jump\t// in\n        tag_118:\n            /* \"#utility.yul\":483:488   */\n          dup2\n            /* \"#utility.yul\":480:515   */\n          eq\n            /* \"#utility.yul\":470:533   */\n          tag_119\n          jumpi\n            /* \"#utility.yul\":529:530   */\n          0x00\n            /* \"#utility.yul\":526:527   */\n          dup1\n            /* \"#utility.yul\":519:531   */\n          revert\n            /* \"#utility.yul\":470:533   */\n        tag_119:\n            /* \"#utility.yul\":417:539   */\n          pop\n          jump\t// out\n            /* \"#utility.yul\":545:684   */\n        tag_69:\n            /* \"#utility.yul\":591:596   */\n          0x00\n            /* \"#utility.yul\":629:635   */\n          dup2\n            /* \"#utility.yul\":616:636   */\n          calldataload\n            /* \"#utility.yul\":607:636   */\n          swap1\n          pop\n            /* \"#utility.yul\":645:678   */\n          tag_121\n            /* \"#utility.yul\":672:677   */\n          dup2\n            /* \"#utility.yul\":645:678   */\n          tag_68\n          jump\t// in\n        tag_121:\n            /* \"#utility.yul\":545:684   */\n          swap3\n          swap2\n          pop\n          pop\n          jump\t// out\n            /* \"#utility.yul\":690:1019   */\n        tag_12:\n            /* \"#utility.yul\":749:755   */\n          0x00\n            /* \"#utility.yul\":798:800   */\n          0x20\n            /* \"#utility.yul\":786:795   */\n          dup3\n            /* \"#utility.yul\":777:784   */\n          dup5\n            /* \"#utility.yul\":773:796   */\n          sub\n            /* \"#utility.yul\":769:801   */\n          slt\n            /* \"#utility.yul\":766:885   */\n          iszero\n          tag_123\n          jumpi\n            /* \"#utility.yul\":804:883   */\n          tag_124\n          tag_65\n          jump\t// in\n        tag_124:\n            /* \"#utility.yul\":766:885   */\n        tag_123:\n            /* \"#utility.yul\":924:925   */\n          0x00\n            /* \"#utility.yul\":949:1002   */\n          tag_125\n            /* \"#utility.yul\":994:1001   */\n          dup5\n            /* \"#utility.yul\":985:991   */\n          dup3\n            /* \"#utility.yul\":974:983   */\n          dup6\n            /* \"#utility.yul\":970:992   */\n          add\n            /* \"#utility.yul\":949:1002   */\n          tag_69\n          jump\t// in\n        tag_125:\n            /* \"#utility.yul\":939:1002   */\n          swap2\n          pop\n            /* \"#utility.yul\":895:1012   */\n          pop\n            /* \"#utility.yul\":690:1019   */\n          swap3\n          swap2\n          pop\n          pop\n          jump\t// out\n            /* \"#utility.yul\":1025:1143   */\n        tag_70:\n            /* \"#utility.yul\":1112:1136   */\n          tag_127\n            /* \"#utility.yul\":1130:1135   */\n          dup2\n            /* \"#utility.yul\":1112:1136   */\n          tag_67\n          jump\t// in\n        tag_127:\n            /* \"#utility.yul\":1107:1110   */\n          dup3\n            /* \"#utility.yul\":1100:1137   */\n          mstore\n            /* \"#utility.yul\":1025:1143   */\n          pop\n          pop\n          jump\t// out\n            /* \"#utility.yul\":1149:1371   */\n        tag_15:\n            /* \"#utility.yul\":1242:1246   */\n          0x00\n            /* \"#utility.yul\":1280:1282   */\n          0x20\n            /* \"#utility.yul\":1269:1278   */\n          dup3\n            /* \"#utility.yul\":1265:1283   */\n          add\n            /* \"#utility.yul\":1257:1283   */\n          swap1\n          pop\n            /* \"#utility.yul\":1293:1364   */\n          tag_129\n            /* \"#utility.yul\":1361:1362   */\n          0x00\n            /* \"#utility.yul\":1350:1359   */\n          dup4\n            /* \"#utility.yul\":1346:1363   */\n          add\n            /* \"#utility.yul\":1337:1343   */\n          dup5\n            /* \"#utility.yul\":1293:1364   */\n          tag_70\n          jump\t// in\n        tag_129:\n            /* \"#utility.yul\":1149:1371   */\n          swap3\n          swap2\n          pop\n          pop\n          jump\t// out\n            /* \"#utility.yul\":1377:1851   */\n        tag_18:\n            /* \"#utility.yul\":1445:1451   */\n          0x00\n            /* \"#utility.yul\":1453:1459   */\n          dup1\n            /* \"#utility.yul\":1502:1504   */\n          0x40\n            /* \"#utility.yul\":1490:1499   */\n          dup4\n            /* \"#utility.yul\":1481:1488   */\n          dup6\n            /* \"#utility.yul\":1477:1500   */\n          sub\n            /* \"#utility.yul\":1473:1505   */\n          slt\n            /* \"#utility.yul\":1470:1589   */\n          iszero\n          tag_131\n          jumpi\n            /* \"#utility.yul\":1508:1587   */\n          tag_132\n          tag_65\n          jump\t// in\n        tag_132:\n            /* \"#utility.yul\":1470:1589   */\n        tag_131:\n            /* \"#utility.yul\":1628:1629   */\n          0x00\n            /* \"#utility.yul\":1653:1706   */\n          tag_133\n            /* \"#utility.yul\":1698:1705   */\n          dup6\n            /* \"#utility.yul\":1689:1695   */\n          dup3\n            /* \"#utility.yul\":1678:1687   */\n          dup7\n            /* \"#utility.yul\":1674:1696   */\n          add\n            /* \"#utility.yul\":1653:1706   */\n          tag_69\n          jump\t// in\n        tag_133:\n            /* \"#utility.yul\":1643:1706   */\n          swap3\n          pop\n            /* \"#utility.yul\":1599:1716   */\n          pop\n            /* \"#utility.yul\":1755:1757   */\n          0x20\n            /* \"#utility.yul\":1781:1834   */\n          tag_134\n            /* \"#utility.yul\":1826:1833   */\n          dup6\n            /* \"#utility.yul\":1817:1823   */\n          dup3\n            /* \"#utility.yul\":1806:1815   */\n          dup7\n            /* \"#utility.yul\":1802:1824   */\n          add\n            /* \"#utility.yul\":1781:1834   */\n          tag_69\n          jump\t// in\n        tag_134:\n            /* \"#utility.yul\":1771:1834   */\n          swap2\n          pop\n            /* \"#utility.yul\":1726:1844   */\n          pop\n            /* \"#utility.yul\":1377:1851   */\n          swap3\n          pop\n          swap3\n          swap1\n          pop\n          jump\t// out\n            /* \"#utility.yul\":1857:1974   */\n        tag_71:\n            /* \"#utility.yul\":1966:1967   */\n          0x00\n            /* \"#utility.yul\":1963:1964   */\n          dup1\n            /* \"#utility.yul\":1956:1968   */\n          revert\n            /* \"#utility.yul\":1980:2097   */\n        tag_72:\n            /* \"#utility.yul\":2089:2090   */\n          0x00\n            /* \"#utility.yul\":2086:2087   */\n          dup1\n            /* \"#utility.yul\":2079:2091   */\n          revert\n            /* \"#utility.yul\":2103:2205   */\n        tag_73:\n            /* \"#utility.yul\":2144:2150   */\n          0x00\n            /* \"#utility.yul\":2195:2197   */\n          0x1f\n            /* \"#utility.yul\":2191:2198   */\n          not\n            /* \"#utility.yul\":2186:2188   */\n          0x1f\n            /* \"#utility.yul\":2179:2184   */\n          dup4\n            /* \"#utility.yul\":2175:2189   */\n          add\n            /* \"#utility.yul\":2171:2199   */\n          and\n            /* \"#utility.yul\":2161:2199   */\n          swap1\n          pop\n            /* \"#utility.yul\":2103:2205   */\n          swap2\n          swap1\n          pop\n          jump\t// out\n            /* \"#utility.yul\":2211:2391   */\n        tag_74:\n            /* \"#utility.yul\":2259:2336   */\n          0x4e487b7100000000000000000000000000000000000000000000000000000000\n            /* \"#utility.yul\":2256:2257   */\n          0x00\n            /* \"#utility.yul\":2249:2337   */\n          mstore\n            /* \"#utility.yul\":2356:2360   */\n          0x41\n            /* \"#utility.yul\":2353:2354   */\n          0x04\n            /* \"#utility.yul\":2346:2361   */\n          mstore\n            /* \"#utility.yul\":2380:2384   */\n          0x24\n            /* \"#utility.yul\":2377:2378   */\n          0x00\n            /* \"#utility.yul\":2370:2385   */\n          revert\n            /* \"#utility.yul\":2397:2678   */\n        tag_75:\n            /* \"#utility.yul\":2480:2507   */\n          tag_140\n            /* \"#utility.yul\":2502:2506   */\n          dup3\n            /* \"#utility.yul\":2480:2507   */\n          tag_73\n          jump\t// in\n        tag_140:\n            /* \"#utility.yul\":2472:2478   */\n          dup2\n            /* \"#utility.yul\":2468:2508   */\n          add\n            /* \"#utility.yul\":2610:2616   */\n          dup2\n            /* \"#utility.yul\":2598:2608   */\n          dup2\n            /* \"#utility.yul\":2595:2617   */\n          lt\n            /* \"#utility.yul\":2574:2592   */\n          0xffffffffffffffff\n            /* \"#utility.yul\":2562:2572   */\n          dup3\n            /* \"#utility.yul\":2559:2593   */\n          gt\n            /* \"#utility.yul\":2556:2618   */\n          or\n            /* \"#utility.yul\":2553:2641   */\n          iszero\n          tag_141\n          jumpi\n            /* \"#utility.yul\":2621:2639   */\n          tag_142\n          tag_74\n          jump\t// in\n        tag_142:\n            /* \"#utility.yul\":2553:2641   */\n        tag_141:\n            /* \"#utility.yul\":2661:2671   */\n          dup1\n            /* \"#utility.yul\":2657:2659   */\n          0x40\n            /* \"#utility.yul\":2650:2672   */\n          mstore\n            /* \"#utility.yul\":2440:2678   */\n          pop\n            /* \"#utility.yul\":2397:2678   */\n          pop\n          pop\n          jump\t// out\n            /* \"#utility.yul\":2684:2813   */\n        tag_76:\n            /* \"#utility.yul\":2718:2724   */\n          0x00\n            /* \"#utility.yul\":2745:2765   */\n          tag_144\n          tag_64\n          jump\t// in\n        tag_144:\n            /* \"#utility.yul\":2735:2765   */\n          swap1\n          pop\n            /* \"#utility.yul\":2774:2807   */\n          tag_145\n            /* \"#utility.yul\":2802:2806   */\n          dup3\n            /* \"#utility.yul\":2794:2800   */\n          dup3\n            /* \"#utility.yul\":2774:2807   */\n          tag_75\n          jump\t// in\n        tag_145:\n            /* \"#utility.yul\":2684:2813   */\n          swap2\n          swap1\n          pop\n          jump\t// out\n            /* \"#utility.yul\":2819:3127   */\n        tag_77:\n            /* \"#utility.yul\":2881:2885   */\n          0x00\n            /* \"#utility.yul\":2971:2989   */\n          0xffffffffffffffff\n            /* \"#utility.yul\":2963:2969   */\n          dup3\n            /* \"#utility.yul\":2960:2990   */\n          gt\n            /* \"#utility.yul\":2957:3013   */\n          iszero\n          tag_147\n          jumpi\n            /* \"#utility.yul\":2993:3011   */\n          tag_148\n          tag_74\n          jump\t// in\n        tag_148:\n            /* \"#utility.yul\":2957:3013   */\n        tag_147:\n            /* \"#utility.yul\":3031:3060   */\n          tag_149\n            /* \"#utility.yul\":3053:3059   */\n          dup3\n            /* \"#utility.yul\":3031:3060   */\n          tag_73\n          jump\t// in\n        tag_149:\n            /* \"#utility.yul\":3023:3060   */\n          swap1\n          pop\n            /* \"#utility.yul\":3115:3119   */\n          0x20\n            /* \"#utility.yul\":3109:3113   */\n          dup2\n            /* \"#utility.yul\":3105:3120   */\n          add\n            /* \"#utility.yul\":3097:3120   */\n          swap1\n          pop\n            /* \"#utility.yul\":2819:3127   */\n          swap2\n          swap1\n          pop\n          jump\t// out\n            /* \"#utility.yul\":3133:3279   */\n        tag_78:\n            /* \"#utility.yul\":3230:3236   */\n          dup3\n            /* \"#utility.yul\":3225:3228   */\n          dup2\n            /* \"#utility.yul\":3220:3223   */\n          dup4\n            /* \"#utility.yul\":3207:3237   */\n          calldatacopy\n            /* \"#utility.yul\":3271:3272   */\n          0x00\n            /* \"#utility.yul\":3262:3268   */\n          dup4\n            /* \"#utility.yul\":3257:3260   */\n          dup4\n            /* \"#utility.yul\":3253:3269   */\n          add\n            /* \"#utility.yul\":3246:3273   */\n          mstore\n            /* \"#utility.yul\":3133:3279   */\n          pop\n          pop\n          pop\n          jump\t// out\n            /* \"#utility.yul\":3285:3710   */\n        tag_79:\n            /* \"#utility.yul\":3363:3368   */\n          0x00\n            /* \"#utility.yul\":3388:3454   */\n          tag_152\n            /* \"#utility.yul\":3404:3453   */\n          tag_153\n            /* \"#utility.yul\":3446:3452   */\n          dup5\n            /* \"#utility.yul\":3404:3453   */\n          tag_77\n          jump\t// in\n        tag_153:\n            /* \"#utility.yul\":3388:3454   */\n          tag_76\n          jump\t// in\n        tag_152:\n            /* \"#utility.yul\":3379:3454   */\n          swap1\n          pop\n            /* \"#utility.yul\":3477:3483   */\n          dup3\n            /* \"#utility.yul\":3470:3475   */\n          dup2\n            /* \"#utility.yul\":3463:3484   */\n          mstore\n            /* \"#utility.yul\":3515:3519   */\n          0x20\n            /* \"#utility.yul\":3508:3513   */\n          dup2\n            /* \"#utility.yul\":3504:3520   */\n          add\n            /* \"#utility.yul\":3553:3556   */\n          dup5\n            /* \"#utility.yul\":3544:3550   */\n          dup5\n            /* \"#utility.yul\":3539:3542   */\n          dup5\n            /* \"#utility.yul\":3535:3551   */\n          add\n            /* \"#utility.yul\":3532:3557   */\n          gt\n            /* \"#utility.yul\":3529:3641   */\n          iszero\n          tag_154\n          jumpi\n            /* \"#utility.yul\":3560:3639   */\n          tag_155\n          tag_72\n          jump\t// in\n        tag_155:\n            /* \"#utility.yul\":3529:3641   */\n        tag_154:\n            /* \"#utility.yul\":3650:3704   */\n          tag_156\n            /* \"#utility.yul\":3697:3703   */\n          dup5\n            /* \"#utility.yul\":3692:3695   */\n          dup3\n            /* \"#utility.yul\":3687:3690   */\n          dup6\n            /* \"#utility.yul\":3650:3704   */\n          tag_78\n          jump\t// in\n        tag_156:\n            /* \"#utility.yul\":3369:3710   */\n          pop\n            /* \"#utility.yul\":3285:3710   */\n          swap4\n          swap3\n          pop\n          pop\n          pop\n          jump\t// out\n            /* \"#utility.yul\":3730:4070   */\n        tag_80:\n            /* \"#utility.yul\":3786:3791   */\n          0x00\n            /* \"#utility.yul\":3835:3838   */\n          dup3\n            /* \"#utility.yul\":3828:3832   */\n          0x1f\n            /* \"#utility.yul\":3820:3826   */\n          dup4\n            /* \"#utility.yul\":3816:3833   */\n          add\n            /* \"#utility.yul\":3812:3839   */\n          slt\n            /* \"#utility.yul\":3802:3924   */\n          tag_158\n          jumpi\n            /* \"#utility.yul\":3843:3922   */\n          tag_159\n          tag_71\n          jump\t// in\n        tag_159:\n            /* \"#utility.yul\":3802:3924   */\n        tag_158:\n            /* \"#utility.yul\":3960:3966   */\n          dup2\n            /* \"#utility.yul\":3947:3967   */\n          calldataload\n            /* \"#utility.yul\":3985:4064   */\n          tag_160\n            /* \"#utility.yul\":4060:4063   */\n          dup5\n            /* \"#utility.yul\":4052:4058   */\n          dup3\n            /* \"#utility.yul\":4045:4049   */\n          0x20\n            /* \"#utility.yul\":4037:4043   */\n          dup7\n            /* \"#utility.yul\":4033:4050   */\n          add\n            /* \"#utility.yul\":3985:4064   */\n          tag_79\n          jump\t// in\n        tag_160:\n            /* \"#utility.yul\":3976:4064   */\n          swap2\n          pop\n            /* \"#utility.yul\":3792:4070   */\n          pop\n            /* \"#utility.yul\":3730:4070   */\n          swap3\n          swap2\n          pop\n          pop\n          jump\t// out\n            /* \"#utility.yul\":4076:4585   */\n        tag_22:\n            /* \"#utility.yul\":4145:4151   */\n          0x00\n            /* \"#utility.yul\":4194:4196   */\n          0x20\n            /* \"#utility.yul\":4182:4191   */\n          dup3\n            /* \"#utility.yul\":4173:4180   */\n          dup5\n            /* \"#utility.yul\":4169:4192   */\n          sub\n            /* \"#utility.yul\":4165:4197   */\n          slt\n            /* \"#utility.yul\":4162:4281   */\n          iszero\n          tag_162\n          jumpi\n            /* \"#utility.yul\":4200:4279   */\n          tag_163\n          tag_65\n          jump\t// in\n        tag_163:\n            /* \"#utility.yul\":4162:4281   */\n        tag_162:\n            /* \"#utility.yul\":4348:4349   */\n          0x00\n            /* \"#utility.yul\":4337:4346   */\n          dup3\n            /* \"#utility.yul\":4333:4350   */\n          add\n            /* \"#utility.yul\":4320:4351   */\n          calldataload\n            /* \"#utility.yul\":4378:4396   */\n          0xffffffffffffffff\n            /* \"#utility.yul\":4370:4376   */\n          dup2\n            /* \"#utility.yul\":4367:4397   */\n          gt\n            /* \"#utility.yul\":4364:4481   */\n          iszero\n          tag_164\n          jumpi\n            /* \"#utility.yul\":4400:4479   */\n          tag_165\n          tag_66\n          jump\t// in\n        tag_165:\n            /* \"#utility.yul\":4364:4481   */\n        tag_164:\n            /* \"#utility.yul\":4505:4568   */\n          tag_166\n            /* \"#utility.yul\":4560:4567   */\n          dup5\n            /* \"#utility.yul\":4551:4557   */\n          dup3\n            /* \"#utility.yul\":4540:4549   */\n          dup6\n            /* \"#utility.yul\":4536:4558   */\n          add\n            /* \"#utility.yul\":4505:4568   */\n          tag_80\n          jump\t// in\n        tag_166:\n            /* \"#utility.yul\":4495:4568   */\n          swap2\n          pop\n            /* \"#utility.yul\":4291:4578   */\n          pop\n            /* \"#utility.yul\":4076:4585   */\n          swap3\n          swap2\n          pop\n          pop\n          jump\t// out\n            /* \"#utility.yul\":4591:4739   */\n        tag_81:\n            /* \"#utility.yul\":4693:4704   */\n          0x00\n            /* \"#utility.yul\":4730:4733   */\n          dup2\n            /* \"#utility.yul\":4715:4733   */\n          swap1\n          pop\n            /* \"#utility.yul\":4591:4739   */\n          swap3\n          swap2\n          pop\n          pop\n          jump\t// out\n            /* \"#utility.yul\":4745:4901   */\n        tag_82:\n            /* \"#utility.yul\":4885:4893   */\n          0x73616d706c650000000000000000000000000000000000000000000000000000\n            /* \"#utility.yul\":4881:4882   */\n          0x00\n            /* \"#utility.yul\":4873:4879   */\n          dup3\n            /* \"#utility.yul\":4869:4883   */\n          add\n            /* \"#utility.yul\":4862:4894   */\n          mstore\n            /* \"#utility.yul\":4745:4901   */\n          pop\n          jump\t// out\n            /* \"#utility.yul\":4907:5307   */\n        tag_83:\n            /* \"#utility.yul\":5067:5070   */\n          0x00\n            /* \"#utility.yul\":5088:5172   */\n          tag_170\n            /* \"#utility.yul\":5170:5171   */\n          0x06\n            /* \"#utility.yul\":5165:5168   */\n          dup4\n            /* \"#utility.yul\":5088:5172   */\n          tag_81\n          jump\t// in\n        tag_170:\n            /* \"#utility.yul\":5081:5172   */\n          swap2\n          pop\n            /* \"#utility.yul\":5181:5274   */\n          tag_171\n            /* \"#utility.yul\":5270:5273   */\n          dup3\n            /* \"#utility.yul\":5181:5274   */\n          tag_82\n          jump\t// in\n        tag_171:\n            /* \"#utility.yul\":5299:5300   */\n          0x06\n            /* \"#utility.yul\":5294:5297   */\n          dup3\n            /* \"#utility.yul\":5290:5301   */\n          add\n            /* \"#utility.yul\":5283:5301   */\n          swap1\n          pop\n            /* \"#utility.yul\":4907:5307   */\n          swap2\n          swap1\n          pop\n          jump\t// out\n            /* \"#utility.yul\":5313:5392   */\n        tag_84:\n            /* \"#utility.yul\":5352:5359   */\n          0x00\n            /* \"#utility.yul\":5381:5386   */\n          dup2\n            /* \"#utility.yul\":5370:5386   */\n          swap1\n          pop\n            /* \"#utility.yul\":5313:5392   */\n          swap2\n          swap1\n          pop\n          jump\t// out\n            /* \"#utility.yul\":5398:5555   */\n        tag_85:\n            /* \"#utility.yul\":5503:5548   */\n          tag_174\n            /* \"#utility.yul\":5523:5547   */\n          tag_175\n            /* \"#utility.yul\":5541:5546   */\n          dup3\n            /* \"#utility.yul\":5523:5547   */\n          tag_67\n          jump\t// in\n        tag_175:\n            /* \"#utility.yul\":5503:5548   */\n          tag_84\n          jump\t// in\n        tag_174:\n            /* \"#utility.yul\":5498:5501   */\n          dup3\n            /* \"#utility.yul\":5491:5549   */\n          mstore\n            /* \"#utility.yul\":5398:5555   */\n          pop\n          pop\n          jump\t// out\n            /* \"#utility.yul\":5561:6083   */\n        tag_34:\n            /* \"#utility.yul\":5774:5777   */\n          0x00\n            /* \"#utility.yul\":5796:5944   */\n          tag_177\n            /* \"#utility.yul\":5940:5943   */\n          dup3\n            /* \"#utility.yul\":5796:5944   */\n          tag_83\n          jump\t// in\n        tag_177:\n            /* \"#utility.yul\":5789:5944   */\n          swap2\n          pop\n            /* \"#utility.yul\":5954:6029   */\n          tag_178\n            /* \"#utility.yul\":6025:6028   */\n          dup3\n            /* \"#utility.yul\":6016:6022   */\n          dup5\n            /* \"#utility.yul\":5954:6029   */\n          tag_85\n          jump\t// in\n        tag_178:\n            /* \"#utility.yul\":6054:6056   */\n          0x20\n            /* \"#utility.yul\":6049:6052   */\n          dup3\n            /* \"#utility.yul\":6045:6057   */\n          add\n            /* \"#utility.yul\":6038:6057   */\n          swap2\n          pop\n            /* \"#utility.yul\":6074:6077   */\n          dup2\n            /* \"#utility.yul\":6067:6077   */\n          swap1\n          pop\n            /* \"#utility.yul\":5561:6083   */\n          swap3\n          swap2\n          pop\n          pop\n          jump\t// out\n            /* \"#utility.yul\":6089:6269   */\n        tag_86:\n            /* \"#utility.yul\":6137:6214   */\n          0x4e487b7100000000000000000000000000000000000000000000000000000000\n            /* \"#utility.yul\":6134:6135   */\n          0x00\n            /* \"#utility.yul\":6127:6215   */\n          mstore\n            /* \"#utility.yul\":6234:6238   */\n          0x11\n            /* \"#utility.yul\":6231:6232   */\n          0x04\n            /* \"#utility.yul\":6224:6239   */\n          mstore\n            /* \"#utility.yul\":6258:6262   */\n          0x24\n            /* \"#utility.yul\":6255:6256   */\n          0x00\n            /* \"#utility.yul\":6248:6263   */\n          revert\n            /* \"#utility.yul\":6275:6508   */\n        tag_36:\n            /* \"#utility.yul\":6314:6317   */\n          0x00\n            /* \"#utility.yul\":6337:6361   */\n          tag_181\n            /* \"#utility.yul\":6355:6360   */\n          dup3\n            /* \"#utility.yul\":6337:6361   */\n          tag_67\n          jump\t// in\n        tag_181:\n            /* \"#utility.yul\":6328:6361   */\n          swap2\n          pop\n            /* \"#utility.yul\":6383:6449   */\n          0xffffffffffffffffffffffffffffffffffffffffffffffffffffffffffffffff\n            /* \"#utility.yul\":6376:6381   */\n          dup3\n            /* \"#utility.yul\":6373:6450   */\n          sub\n            /* \"#utility.yul\":6370:6473   */\n          tag_182\n          jumpi\n            /* \"#utility.yul\":6453:6471   */\n          tag_183\n          tag_86\n          jump\t// in\n        tag_183:\n            /* \"#utility.yul\":6370:6473   */\n        tag_182:\n            /* \"#utility.yul\":6500:6501   */\n          0x01\n            /* \"#utility.yul\":6493:6498   */\n          dup3\n            /* \"#utility.yul\":6489:6502   */\n          add\n            /* \"#utility.yul\":6482:6502   */\n          swap1\n          pop\n            /* \"#utility.yul\":6275:6508   */\n          swap2\n          swap1\n          pop\n          jump\t// out\n            /* \"#utility.yul\":6514:6683   */\n        tag_87:\n            /* \"#utility.yul\":6598:6609   */\n          0x00\n            /* \"#utility.yul\":6632:6638   */\n          dup3\n            /* \"#utility.yul\":6627:6630   */\n          dup3\n            /* \"#utility.yul\":6620:6639   */\n          mstore\n            /* \"#utility.yul\":6672:6676   */\n          0x20\n            /* \"#utility.yul\":6667:6670   */\n          dup3\n            /* \"#utility.yul\":6663:6677   */\n          add\n            /* \"#utility.yul\":6648:6677   */\n          swap1\n          pop\n            /* \"#utility.yul\":6514:6683   */\n          swap3\n          swap2\n          pop\n          pop\n          jump\t// out\n            /* \"#utility.yul\":6689:6860   */\n        tag_88:\n            /* \"#utility.yul\":6829:6852   */\n          0x536f7572636520646f6573206e6f742065786973740000000000000000000000\n            /* \"#utility.yul\":6825:6826   */\n          0x00\n            /* \"#utility.yul\":6817:6823   */\n          dup3\n            /* \"#utility.yul\":6813:6827   */\n          add\n            /* \"#utility.yul\":6806:6853   */\n          mstore\n            /* \"#utility.yul\":6689:6860   */\n          pop\n          jump\t// out\n            /* \"#utility.yul\":6866:7232   */\n        tag_89:\n            /* \"#utility.yul\":7008:7011   */\n          0x00\n            /* \"#utility.yul\":7029:7096   */\n          tag_187\n            /* \"#utility.yul\":7093:7095   */\n          0x15\n            /* \"#utility.yul\":7088:7091   */\n          dup4\n            /* \"#utility.yul\":7029:7096   */\n          tag_87\n          jump\t// in\n        tag_187:\n            /* \"#utility.yul\":7022:7096   */\n          swap2\n          pop\n            /* \"#utility.yul\":7105:7198   */\n          tag_188\n            /* \"#utility.yul\":7194:7197   */\n          dup3\n            /* \"#utility.yul\":7105:7198   */\n          tag_88\n          jump\t// in\n        tag_188:\n            /* \"#utility.yul\":7223:7225   */\n          0x20\n            /* \"#utility.yul\":7218:7221   */\n          dup3\n            /* \"#utility.yul\":7214:7226   */\n          add\n            /* \"#utility.yul\":7207:7226   */\n          swap1\n          pop\n            /* \"#utility.yul\":6866:7232   */\n          swap2\n          swap1\n          pop\n          jump\t// out\n            /* \"#utility.yul\":7238:7657   */\n        tag_40:\n            /* \"#utility.yul\":7404:7408   */\n          0x00\n            /* \"#utility.yul\":7442:7444   */\n          0x20\n            /* \"#utility.yul\":7431:7440   */\n          dup3\n            /* \"#utility.yul\":7427:7445   */\n          add\n            /* \"#utility.yul\":7419:7445   */\n          swap1\n          pop\n            /* \"#utility.yul\":7491:7500   */\n          dup2\n            /* \"#utility.yul\":7485:7489   */\n          dup2\n            /* \"#utility.yul\":7481:7501   */\n          sub\n            /* \"#utility.yul\":7477:7478   */\n          0x00\n            /* \"#utility.yul\":7466:7475   */\n          dup4\n            /* \"#utility.yul\":7462:7479   */\n          add\n            /* \"#utility.yul\":7455:7502   */\n          mstore\n            /* \"#utility.yul\":7519:7650   */\n          tag_190\n            /* \"#utility.yul\":7645:7649   */\n          dup2\n            /* \"#utility.yul\":7519:7650   */\n          tag_89\n          jump\t// in\n        tag_190:\n            /* \"#utility.yul\":7511:7650   */\n          swap1\n          pop\n            /* \"#utility.yul\":7238:7657   */\n          swap2\n          swap1\n          pop\n          jump\t// out\n            /* \"#utility.yul\":7663:7816   */\n        tag_90:\n            /* \"#utility.yul\":7803:7808   */\n          0x3931310000000000000000000000000000000000000000000000000000000000\n            /* \"#utility.yul\":7799:7800   */\n          0x00\n            /* \"#utility.yul\":7791:7797   */\n          dup3\n            /* \"#utility.yul\":7787:7801   */\n          add\n            /* \"#utility.yul\":7780:7809   */\n          mstore\n            /* \"#utility.yul\":7663:7816   */\n          pop\n          jump\t// out\n            /* \"#utility.yul\":7822:8222   */\n        tag_91:\n            /* \"#utility.yul\":7982:7985   */\n          0x00\n            /* \"#utility.yul\":8003:8087   */\n          tag_193\n            /* \"#utility.yul\":8085:8086   */\n          0x03\n            /* \"#utility.yul\":8080:8083   */\n          dup4\n            /* \"#utility.yul\":8003:8087   */\n          tag_81\n          jump\t// in\n        tag_193:\n            /* \"#utility.yul\":7996:8087   */\n          swap2\n          pop\n            /* \"#utility.yul\":8096:8189   */\n          tag_194\n            /* \"#utility.yul\":8185:8188   */\n          dup3\n            /* \"#utility.yul\":8096:8189   */\n          tag_90\n          jump\t// in\n        tag_194:\n            /* \"#utility.yul\":8214:8215   */\n          0x03\n            /* \"#utility.yul\":8209:8212   */\n          dup3\n            /* \"#utility.yul\":8205:8216   */\n          add\n            /* \"#utility.yul\":8198:8216   */\n          swap1\n          pop\n            /* \"#utility.yul\":7822:8222   */\n          swap2\n          swap1\n          pop\n          jump\t// out\n            /* \"#utility.yul\":8228:8609   */\n        tag_56:\n            /* \"#utility.yul\":8413:8416   */\n          0x00\n            /* \"#utility.yul\":8435:8583   */\n          tag_196\n            /* \"#utility.yul\":8579:8582   */\n          dup3\n            /* \"#utility.yul\":8435:8583   */\n          tag_91\n          jump\t// in\n        tag_196:\n            /* \"#utility.yul\":8428:8583   */\n          swap2\n          pop\n            /* \"#utility.yul\":8600:8603   */\n          dup2\n            /* \"#utility.yul\":8593:8603   */\n          swap1\n          pop\n            /* \"#utility.yul\":8228:8609   */\n          swap2\n          swap1\n          pop\n          jump\t// out\n            /* \"#utility.yul\":8615:8714   */\n        tag_92:\n            /* \"#utility.yul\":8667:8673   */\n          0x00\n            /* \"#utility.yul\":8701:8706   */\n          dup2\n            /* \"#utility.yul\":8695:8707   */\n          mload\n            /* \"#utility.yul\":8685:8707   */\n          swap1\n          pop\n            /* \"#utility.yul\":8615:8714   */\n          swap2\n          swap1\n          pop\n          jump\t// out\n            /* \"#utility.yul\":8720:8966   */\n        tag_93:\n            /* \"#utility.yul\":8801:8802   */\n          0x00\n            /* \"#utility.yul\":8811:8924   */\n        tag_199:\n            /* \"#utility.yul\":8825:8831   */\n          dup4\n            /* \"#utility.yul\":8822:8823   */\n          dup2\n            /* \"#utility.yul\":8819:8832   */\n          lt\n            /* \"#utility.yul\":8811:8924   */\n          iszero\n          tag_201\n          jumpi\n            /* \"#utility.yul\":8910:8911   */\n          dup1\n            /* \"#utility.yul\":8905:8908   */\n          dup3\n            /* \"#utility.yul\":8901:8912   */\n          add\n            /* \"#utility.yul\":8895:8913   */\n          mload\n            /* \"#utility.yul\":8891:8892   */\n          dup2\n            /* \"#utility.yul\":8886:8889   */\n          dup5\n            /* \"#utility.yul\":8882:8893   */\n          add\n            /* \"#utility.yul\":8875:8914   */\n          mstore\n            /* \"#utility.yul\":8847:8849   */\n          0x20\n            /* \"#utility.yul\":8844:8845   */\n          dup2\n            /* \"#utility.yul\":8840:8850   */\n          add\n            /* \"#utility.yul\":8835:8850   */\n          swap1\n          pop\n            /* \"#utility.yul\":8811:8924   */\n          jump(tag_199)\n        tag_201:\n            /* \"#utility.yul\":8958:8959   */\n          0x00\n            /* \"#utility.yul\":8949:8955   */\n          dup5\n            /* \"#utility.yul\":8944:8947   */\n          dup5\n            /* \"#utility.yul\":8940:8956   */\n          add\n            /* \"#utility.yul\":8933:8960   */\n          mstore\n            /* \"#utility.yul\":8782:8966   */\n          pop\n            /* \"#utility.yul\":8720:8966   */\n          pop\n          pop\n          pop\n          jump\t// out\n            /* \"#utility.yul\":8972:9362   */\n        tag_94:\n            /* \"#utility.yul\":9078:9081   */\n          0x00\n            /* \"#utility.yul\":9106:9145   */\n          tag_203\n            /* \"#utility.yul\":9139:9144   */\n          dup3\n            /* \"#utility.yul\":9106:9145   */\n          tag_92\n          jump\t// in\n        tag_203:\n            /* \"#utility.yul\":9161:9250   */\n          tag_204\n            /* \"#utility.yul\":9243:9249   */\n          dup2\n            /* \"#utility.yul\":9238:9241   */\n          dup6\n            /* \"#utility.yul\":9161:9250   */\n          tag_81\n          jump\t// in\n        tag_204:\n            /* \"#utility.yul\":9154:9250   */\n          swap4\n          pop\n            /* \"#utility.yul\":9259:9324   */\n          tag_205\n            /* \"#utility.yul\":9317:9323   */\n          dup2\n            /* \"#utility.yul\":9312:9315   */\n          dup6\n            /* \"#utility.yul\":9305:9309   */\n          0x20\n            /* \"#utility.yul\":9298:9303   */\n          dup7\n            /* \"#utility.yul\":9294:9310   */\n          add\n            /* \"#utility.yul\":9259:9324   */\n          tag_93\n          jump\t// in\n        tag_205:\n            /* \"#utility.yul\":9349:9355   */\n          dup1\n            /* \"#utility.yul\":9344:9347   */\n          dup5\n            /* \"#utility.yul\":9340:9356   */\n          add\n            /* \"#utility.yul\":9333:9356   */\n          swap2\n          pop\n            /* \"#utility.yul\":9082:9362   */\n          pop\n            /* \"#utility.yul\":8972:9362   */\n          swap3\n          swap2\n          pop\n          pop\n          jump\t// out\n            /* \"#utility.yul\":9368:9643   */\n        tag_58:\n            /* \"#utility.yul\":9500:9503   */\n          0x00\n            /* \"#utility.yul\":9522:9617   */\n          tag_207\n            /* \"#utility.yul\":9613:9616   */\n          dup3\n            /* \"#utility.yul\":9604:9610   */\n          dup5\n            /* \"#utility.yul\":9522:9617   */\n          tag_94\n          jump\t// in\n        tag_207:\n            /* \"#utility.yul\":9515:9617   */\n          swap2\n          pop\n            /* \"#utility.yul\":9634:9637   */\n          dup2\n            /* \"#utility.yul\":9627:9637   */\n          swap1\n          pop\n            /* \"#utility.yul\":9368:9643   */\n          swap3\n          swap2\n          pop\n          pop\n          jump\t// out\n            /* \"#utility.yul\":9649:9829   */\n        tag_95:\n            /* \"#utility.yul\":9697:9774   */\n          0x4e487b7100000000000000000000000000000000000000000000000000000000\n            /* \"#utility.yul\":9694:9695   */\n          0x00\n            /* \"#utility.yul\":9687:9775   */\n          mstore\n            /* \"#utility.yul\":9794:9798   */\n          0x22\n            /* \"#utility.yul\":9791:9792   */\n          0x04\n            /* \"#utility.yul\":9784:9799   */\n          mstore\n            /* \"#utility.yul\":9818:9822   */\n          0x24\n            /* \"#utility.yul\":9815:9816   */\n          0x00\n            /* \"#utility.yul\":9808:9823   */\n          revert\n            /* \"#utility.yul\":9835:10155   */\n        tag_96:\n            /* \"#utility.yul\":9879:9885   */\n          0x00\n            /* \"#utility.yul\":9916:9917   */\n          0x02\n            /* \"#utility.yul\":9910:9914   */\n          dup3\n            /* \"#utility.yul\":9906:9918   */\n          div\n            /* \"#utility.yul\":9896:9918   */\n          swap1\n          pop\n            /* \"#utility.yul\":9963:9964   */\n          0x01\n            /* \"#utility.yul\":9957:9961   */\n          dup3\n            /* \"#utility.yul\":9953:9965   */\n          and\n            /* \"#utility.yul\":9984:10002   */\n          dup1\n            /* \"#utility.yul\":9974:10055   */\n          tag_210\n          jumpi\n            /* \"#utility.yul\":10040:10044   */\n          0x7f\n            /* \"#utility.yul\":10032:10038   */\n          dup3\n            /* \"#utility.yul\":10028:10045   */\n          and\n            /* \"#utility.yul\":10018:10045   */\n          swap2\n          pop\n            /* \"#utility.yul\":9974:10055   */\n        tag_210:\n            /* \"#utility.yul\":10102:10104   */\n          0x20\n            /* \"#utility.yul\":10094:10100   */\n          dup3\n            /* \"#utility.yul\":10091:10105   */\n          lt\n            /* \"#utility.yul\":10071:10089   */\n          dup2\n            /* \"#utility.yul\":10068:10106   */\n          sub\n            /* \"#utility.yul\":10065:10149   */\n          tag_211\n          jumpi\n            /* \"#utility.yul\":10121:10139   */\n          tag_212\n          tag_95\n          jump\t// in\n        tag_212:\n            /* \"#utility.yul\":10065:10149   */\n        tag_211:\n            /* \"#utility.yul\":9886:10155   */\n          pop\n            /* \"#utility.yul\":9835:10155   */\n          swap2\n          swap1\n          pop\n          jump\t// out\n            /* \"#utility.yul\":10161:10302   */\n        tag_97:\n            /* \"#utility.yul\":10210:10214   */\n          0x00\n            /* \"#utility.yul\":10233:10236   */\n          dup2\n            /* \"#utility.yul\":10225:10236   */\n          swap1\n          pop\n            /* \"#utility.yul\":10256:10259   */\n          dup2\n            /* \"#utility.yul\":10253:10254   */\n          0x00\n            /* \"#utility.yul\":10246:10260   */\n          mstore\n            /* \"#utility.yul\":10290:10294   */\n          0x20\n            /* \"#utility.yul\":10287:10288   */\n          0x00\n            /* \"#utility.yul\":10277:10295   */\n          keccak256\n            /* \"#utility.yul\":10269:10295   */\n          swap1\n          pop\n            /* \"#utility.yul\":10161:10302   */\n          swap2\n          swap1\n          pop\n          jump\t// out\n            /* \"#utility.yul\":10308:10401   */\n        tag_98:\n            /* \"#utility.yul\":10345:10351   */\n          0x00\n            /* \"#utility.yul\":10392:10394   */\n          0x20\n            /* \"#utility.yul\":10387:10389   */\n          0x1f\n            /* \"#utility.yul\":10380:10385   */\n          dup4\n            /* \"#utility.yul\":10376:10390   */\n          add\n            /* \"#utility.yul\":10372:10395   */\n          div\n            /* \"#utility.yul\":10362:10395   */\n          swap1\n          pop\n            /* \"#utility.yul\":10308:10401   */\n          swap2\n          swap1\n          pop\n          jump\t// out\n            /* \"#utility.yul\":10407:10514   */\n        tag_99:\n            /* \"#utility.yul\":10451:10459   */\n          0x00\n            /* \"#utility.yul\":10501:10506   */\n          dup3\n            /* \"#utility.yul\":10495:10499   */\n          dup3\n            /* \"#utility.yul\":10491:10507   */\n          shl\n            /* \"#utility.yul\":10470:10507   */\n          swap1\n          pop\n            /* \"#utility.yul\":10407:10514   */\n          swap3\n          swap2\n          pop\n          pop\n          jump\t// out\n            /* \"#utility.yul\":10520:10913   */\n        tag_100:\n            /* \"#utility.yul\":10589:10595   */\n          0x00\n            /* \"#utility.yul\":10639:10640   */\n          0x08\n            /* \"#utility.yul\":10627:10637   */\n          dup4\n            /* \"#utility.yul\":10623:10641   */\n          mul\n            /* \"#utility.yul\":10662:10759   */\n          tag_217\n            /* \"#utility.yul\":10692:10758   */\n          0xffffffffffffffffffffffffffffffffffffffffffffffffffffffffffffffff\n            /* \"#utility.yul\":10681:10690   */\n          dup3\n            /* \"#utility.yul\":10662:10759   */\n          tag_99\n          jump\t// in\n        tag_217:\n            /* \"#utility.yul\":10780:10819   */\n          tag_218\n            /* \"#utility.yul\":10810:10818   */\n          dup7\n            /* \"#utility.yul\":10799:10808   */\n          dup4\n            /* \"#utility.yul\":10780:10819   */\n          tag_99\n          jump\t// in\n        tag_218:\n            /* \"#utility.yul\":10768:10819   */\n          swap6\n          pop\n            /* \"#utility.yul\":10852:10856   */\n          dup1\n            /* \"#utility.yul\":10848:10857   */\n          not\n            /* \"#utility.yul\":10841:10846   */\n          dup5\n            /* \"#utility.yul\":10837:10858   */\n          and\n            /* \"#utility.yul\":10828:10858   */\n          swap4\n          pop\n            /* \"#utility.yul\":10901:10905   */\n          dup1\n            /* \"#utility.yul\":10891:10899   */\n          dup7\n            /* \"#utility.yul\":10887:10906   */\n          and\n            /* \"#utility.yul\":10880:10885   */\n          dup5\n            /* \"#utility.yul\":10877:10907   */\n          or\n            /* \"#utility.yul\":10867:10907   */\n          swap3\n          pop\n            /* \"#utility.yul\":10596:10913   */\n          pop\n          pop\n            /* \"#utility.yul\":10520:10913   */\n          swap4\n          swap3\n          pop\n          pop\n          pop\n          jump\t// out\n            /* \"#utility.yul\":10919:10979   */\n        tag_101:\n            /* \"#utility.yul\":10947:10950   */\n          0x00\n            /* \"#utility.yul\":10968:10973   */\n          dup2\n            /* \"#utility.yul\":10961:10973   */\n          swap1\n          pop\n            /* \"#utility.yul\":10919:10979   */\n          swap2\n          swap1\n          pop\n          jump\t// out\n            /* \"#utility.yul\":10985:11127   */\n        tag_102:\n            /* \"#utility.yul\":11035:11044   */\n          0x00\n            /* \"#utility.yul\":11068:11121   */\n          tag_221\n            /* \"#utility.yul\":11086:11120   */\n          tag_222\n            /* \"#utility.yul\":11095:11119   */\n          tag_223\n            /* \"#utility.yul\":11113:11118   */\n          dup5\n            /* \"#utility.yul\":11095:11119   */\n          tag_67\n          jump\t// in\n        tag_223:\n            /* \"#utility.yul\":11086:11120   */\n          tag_101\n          jump\t// in\n        tag_222:\n            /* \"#utility.yul\":11068:11121   */\n          tag_67\n          jump\t// in\n        tag_221:\n            /* \"#utility.yul\":11055:11121   */\n          swap1\n          pop\n            /* \"#utility.yul\":10985:11127   */\n          swap2\n          swap1\n          pop\n          jump\t// out\n            /* \"#utility.yul\":11133:11208   */\n        tag_103:\n            /* \"#utility.yul\":11176:11179   */\n          0x00\n            /* \"#utility.yul\":11197:11202   */\n          dup2\n            /* \"#utility.yul\":11190:11202   */\n          swap1\n          pop\n            /* \"#utility.yul\":11133:11208   */\n          swap2\n          swap1\n          pop\n          jump\t// out\n            /* \"#utility.yul\":11214:11483   */\n        tag_104:\n            /* \"#utility.yul\":11324:11363   */\n          tag_226\n            /* \"#utility.yul\":11355:11362   */\n          dup4\n            /* \"#utility.yul\":11324:11363   */\n          tag_102\n          jump\t// in\n        tag_226:\n            /* \"#utility.yul\":11385:11476   */\n          tag_227\n            /* \"#utility.yul\":11434:11475   */\n          tag_228\n            /* \"#utility.yul\":11458:11474   */\n          dup3\n            /* \"#utility.yul\":11434:11475   */\n          tag_103\n          jump\t// in\n        tag_228:\n            /* \"#utility.yul\":11426:11432   */\n          dup5\n            /* \"#utility.yul\":11419:11423   */\n          dup5\n            /* \"#utility.yul\":11413:11424   */\n          sload\n            /* \"#utility.yul\":11385:11476   */\n          tag_100\n          jump\t// in\n        tag_227:\n            /* \"#utility.yul\":11379:11383   */\n          dup3\n            /* \"#utility.yul\":11372:11477   */\n          sstore\n            /* \"#utility.yul\":11290:11483   */\n          pop\n            /* \"#utility.yul\":11214:11483   */\n          pop\n          pop\n          pop\n          jump\t// out\n            /* \"#utility.yul\":11489:11562   */\n        tag_105:\n            /* \"#utility.yul\":11534:11537   */\n          0x00\n            /* \"#utility.yul\":11489:11562   */\n          swap1\n          jump\t// out\n            /* \"#utility.yul\":11568:11757   */\n        tag_106:\n            /* \"#utility.yul\":11645:11677   */\n          tag_231\n          tag_105\n          jump\t// in\n        tag_231:\n            /* \"#utility.yul\":11686:11751   */\n          tag_232\n            /* \"#utility.yul\":11744:11750   */\n          dup2\n            /* \"#utility.yul\":11736:11742   */\n          dup5\n            /* \"#utility.yul\":11730:11734   */\n          dup5\n            /* \"#utility.yul\":11686:11751   */\n          tag_104\n          jump\t// in\n        tag_232:\n            /* \"#utility.yul\":11621:11757   */\n          pop\n            /* \"#utility.yul\":11568:11757   */\n          pop\n          pop\n          jump\t// out\n            /* \"#utility.yul\":11763:11949   */\n        tag_107:\n            /* \"#utility.yul\":11823:11943   */\n        tag_234:\n            /* \"#utility.yul\":11840:11843   */\n          dup2\n            /* \"#utility.yul\":11833:11838   */\n          dup2\n            /* \"#utility.yul\":11830:11844   */\n          lt\n            /* \"#utility.yul\":11823:11943   */\n          iszero\n          tag_236\n          jumpi\n            /* \"#utility.yul\":11894:11933   */\n          tag_237\n            /* \"#utility.yul\":11931:11932   */\n          0x00\n            /* \"#utility.yul\":11924:11929   */\n          dup3\n            /* \"#utility.yul\":11894:11933   */\n          tag_106\n          jump\t// in\n        tag_237:\n            /* \"#utility.yul\":11867:11868   */\n          0x01\n            /* \"#utility.yul\":11860:11865   */\n          dup2\n            /* \"#utility.yul\":11856:11869   */\n          add\n            /* \"#utility.yul\":11847:11869   */\n          swap1\n          pop\n            /* \"#utility.yul\":11823:11943   */\n          jump(tag_234)\n        tag_236:\n            /* \"#utility.yul\":11763:11949   */\n          pop\n          pop\n          jump\t// out\n            /* \"#utility.yul\":11955:12498   */\n        tag_108:\n            /* \"#utility.yul\":12056:12058   */\n          0x1f\n            /* \"#utility.yul\":12051:12054   */\n          dup3\n            /* \"#utility.yul\":12048:12059   */\n          gt\n            /* \"#utility.yul\":12045:12491   */\n          iszero\n          tag_239\n          jumpi\n            /* \"#utility.yul\":12090:12128   */\n          tag_240\n            /* \"#utility.yul\":12122:12127   */\n          dup2\n            /* \"#utility.yul\":12090:12128   */\n          tag_97\n          jump\t// in\n        tag_240:\n            /* \"#utility.yul\":12174:12203   */\n          tag_241\n            /* \"#utility.yul\":12192:12202   */\n          dup5\n            /* \"#utility.yul\":12174:12203   */\n          tag_98\n          jump\t// in\n        tag_241:\n            /* \"#utility.yul\":12164:12172   */\n          dup2\n            /* \"#utility.yul\":12160:12204   */\n          add\n            /* \"#utility.yul\":12357:12359   */\n          0x20\n            /* \"#utility.yul\":12345:12355   */\n          dup6\n            /* \"#utility.yul\":12342:12360   */\n          lt\n            /* \"#utility.yul\":12339:12388   */\n          iszero\n          tag_242\n          jumpi\n            /* \"#utility.yul\":12378:12386   */\n          dup2\n            /* \"#utility.yul\":12363:12386   */\n          swap1\n          pop\n            /* \"#utility.yul\":12339:12388   */\n        tag_242:\n            /* \"#utility.yul\":12401:12481   */\n          tag_243\n            /* \"#utility.yul\":12457:12479   */\n          tag_244\n            /* \"#utility.yul\":12475:12478   */\n          dup6\n            /* \"#utility.yul\":12457:12479   */\n          tag_98\n          jump\t// in\n        tag_244:\n            /* \"#utility.yul\":12447:12455   */\n          dup4\n            /* \"#utility.yul\":12443:12480   */\n          add\n            /* \"#utility.yul\":12430:12441   */\n          dup3\n            /* \"#utility.yul\":12401:12481   */\n          tag_107\n          jump\t// in\n        tag_243:\n            /* \"#utility.yul\":12060:12491   */\n          pop\n          pop\n            /* \"#utility.yul\":12045:12491   */\n        tag_239:\n            /* \"#utility.yul\":11955:12498   */\n          pop\n          pop\n          pop\n          jump\t// out\n            /* \"#utility.yul\":12504:12621   */\n        tag_109:\n            /* \"#utility.yul\":12558:12566   */\n          0x00\n            /* \"#utility.yul\":12608:12613   */\n          dup3\n            /* \"#utility.yul\":12602:12606   */\n          dup3\n            /* \"#utility.yul\":12598:12614   */\n          shr\n            /* \"#utility.yul\":12577:12614   */\n          swap1\n          pop\n            /* \"#utility.yul\":12504:12621   */\n          swap3\n          swap2\n          pop\n          pop\n          jump\t// out\n            /* \"#utility.yul\":12627:12796   */\n        tag_110:\n            /* \"#utility.yul\":12671:12677   */\n          0x00\n            /* \"#utility.yul\":12704:12755   */\n          tag_247\n            /* \"#utility.yul\":12752:12753   */\n          0x00\n            /* \"#utility.yul\":12748:12754   */\n          not\n            /* \"#utility.yul\":12740:12745   */\n          dup5\n            /* \"#utility.yul\":12737:12738   */\n          0x08\n            /* \"#utility.yul\":12733:12746   */\n          mul\n            /* \"#utility.yul\":12704:12755   */\n          tag_109\n          jump\t// in\n        tag_247:\n            /* \"#utility.yul\":12700:12756   */\n          not\n            /* \"#utility.yul\":12785:12789   */\n          dup1\n            /* \"#utility.yul\":12779:12783   */\n          dup4\n            /* \"#utility.yul\":12775:12790   */\n          and\n            /* \"#utility.yul\":12765:12790   */\n          swap2\n          pop\n            /* \"#utility.yul\":12678:12796   */\n          pop\n            /* \"#utility.yul\":12627:12796   */\n          swap3\n          swap2\n          pop\n          pop\n          jump\t// out\n            /* \"#utility.yul\":12801:13096   */\n        tag_111:\n            /* \"#utility.yul\":12877:12881   */\n          0x00\n            /* \"#utility.yul\":13023:13052   */\n          tag_249\n            /* \"#utility.yul\":13048:13051   */\n          dup4\n            /* \"#utility.yul\":13042:13046   */\n          dup4\n            /* \"#utility.yul\":13023:13052   */\n          tag_110\n          jump\t// in\n        tag_249:\n            /* \"#utility.yul\":13015:13052   */\n          swap2\n          pop\n            /* \"#utility.yul\":13085:13088   */\n          dup3\n            /* \"#utility.yul\":13082:13083   */\n          0x02\n            /* \"#utility.yul\":13078:13089   */\n          mul\n            /* \"#utility.yul\":13072:13076   */\n          dup3\n            /* \"#utility.yul\":13069:13090   */\n          or\n            /* \"#utility.yul\":13061:13090   */\n          swap1\n          pop\n            /* \"#utility.yul\":12801:13096   */\n          swap3\n          swap2\n          pop\n          pop\n          jump\t// out\n            /* \"#utility.yul\":13101:14496   */\n        tag_61:\n            /* \"#utility.yul\":13218:13255   */\n          tag_251\n            /* \"#utility.yul\":13251:13254   */\n          dup3\n            /* \"#utility.yul\":13218:13255   */\n          tag_92\n          jump\t// in\n        tag_251:\n            /* \"#utility.yul\":13320:13338   */\n          0xffffffffffffffff\n            /* \"#utility.yul\":13312:13318   */\n          dup2\n            /* \"#utility.yul\":13309:13339   */\n          gt\n            /* \"#utility.yul\":13306:13362   */\n          iszero\n          tag_252\n          jumpi\n            /* \"#utility.yul\":13342:13360   */\n          tag_253\n          tag_74\n          jump\t// in\n        tag_253:\n            /* \"#utility.yul\":13306:13362   */\n        tag_252:\n            /* \"#utility.yul\":13386:13424   */\n          tag_254\n            /* \"#utility.yul\":13418:13422   */\n          dup3\n            /* \"#utility.yul\":13412:13423   */\n          sload\n            /* \"#utility.yul\":13386:13424   */\n          tag_96\n          jump\t// in\n        tag_254:\n            /* \"#utility.yul\":13471:13538   */\n          tag_255\n            /* \"#utility.yul\":13531:13537   */\n          dup3\n            /* \"#utility.yul\":13523:13529   */\n          dup3\n            /* \"#utility.yul\":13517:13521   */\n          dup6\n            /* \"#utility.yul\":13471:13538   */\n          tag_108\n          jump\t// in\n        tag_255:\n            /* \"#utility.yul\":13565:13566   */\n          0x00\n            /* \"#utility.yul\":13589:13593   */\n          0x20\n            /* \"#utility.yul\":13576:13593   */\n          swap1\n          pop\n            /* \"#utility.yul\":13621:13623   */\n          0x1f\n            /* \"#utility.yul\":13613:13619   */\n          dup4\n            /* \"#utility.yul\":13610:13624   */\n          gt\n            /* \"#utility.yul\":13638:13639   */\n          0x01\n            /* \"#utility.yul\":13633:14251   */\n          dup2\n          eq\n          tag_257\n          jumpi\n            /* \"#utility.yul\":14295:14296   */\n          0x00\n            /* \"#utility.yul\":14312:14318   */\n          dup5\n            /* \"#utility.yul\":14309:14386   */\n          iszero\n          tag_258\n          jumpi\n            /* \"#utility.yul\":14361:14370   */\n          dup3\n            /* \"#utility.yul\":14356:14359   */\n          dup8\n            /* \"#utility.yul\":14352:14371   */\n          add\n            /* \"#utility.yul\":14346:14372   */\n          mload\n            /* \"#utility.yul\":14337:14372   */\n          swap1\n          pop\n            /* \"#utility.yul\":14309:14386   */\n        tag_258:\n            /* \"#utility.yul\":14412:14479   */\n          tag_259\n            /* \"#utility.yul\":14472:14478   */\n          dup6\n            /* \"#utility.yul\":14465:14470   */\n          dup3\n            /* \"#utility.yul\":14412:14479   */\n          tag_111\n          jump\t// in\n        tag_259:\n            /* \"#utility.yul\":14406:14410   */\n          dup7\n            /* \"#utility.yul\":14399:14480   */\n          sstore\n            /* \"#utility.yul\":14268:14490   */\n          pop\n            /* \"#utility.yul\":13603:14490   */\n          jump(tag_256)\n            /* \"#utility.yul\":13633:14251   */\n        tag_257:\n            /* \"#utility.yul\":13685:13689   */\n          0x1f\n            /* \"#utility.yul\":13681:13690   */\n          not\n            /* \"#utility.yul\":13673:13679   */\n          dup5\n            /* \"#utility.yul\":13669:13691   */\n          and\n            /* \"#utility.yul\":13719:13756   */\n          tag_260\n            /* \"#utility.yul\":13751:13755   */\n          dup7\n            /* \"#utility.yul\":13719:13756   */\n          tag_97\n          jump\t// in\n        tag_260:\n            /* \"#utility.yul\":13778:13779   */\n          0x00\n            /* \"#utility.yul\":13792:14000   */\n        tag_261:\n            /* \"#utility.yul\":13806:13813   */\n          dup3\n            /* \"#utility.yul\":13803:13804   */\n          dup2\n            /* \"#utility.yul\":13800:13814   */\n          lt\n            /* \"#utility.yul\":13792:14000   */\n          iszero\n          tag_263\n          jumpi\n            /* \"#utility.yul\":13885:13894   */\n          dup5\n            /* \"#utility.yul\":13880:13883   */\n          dup10\n            /* \"#utility.yul\":13876:13895   */\n          add\n            /* \"#utility.yul\":13870:13896   */\n          mload\n            /* \"#utility.yul\":13862:13868   */\n          dup3\n            /* \"#utility.yul\":13855:13897   */\n          sstore\n            /* \"#utility.yul\":13936:13937   */\n          0x01\n            /* \"#utility.yul\":13928:13934   */\n          dup3\n            /* \"#utility.yul\":13924:13938   */\n          add\n            /* \"#utility.yul\":13914:13938   */\n          swap2\n          pop\n            /* \"#utility.yul\":13983:13985   */\n          0x20\n            /* \"#utility.yul\":13972:13981   */\n          dup6\n            /* \"#utility.yul\":13968:13986   */\n          add\n            /* \"#utility.yul\":13955:13986   */\n          swap5\n          pop\n            /* \"#utility.yul\":13829:13833   */\n          0x20\n            /* \"#utility.yul\":13826:13827   */\n          dup2\n            /* \"#utility.yul\":13822:13834   */\n          add\n            /* \"#utility.yul\":13817:13834   */\n          swap1\n          pop\n            /* \"#utility.yul\":13792:14000   */\n          jump(tag_261)\n        tag_263:\n            /* \"#utility.yul\":14028:14034   */\n          dup7\n            /* \"#utility.yul\":14019:14026   */\n          dup4\n            /* \"#utility.yul\":14016:14035   */\n          lt\n            /* \"#utility.yul\":14013:14192   */\n          iszero\n          tag_264\n          jumpi\n            /* \"#utility.yul\":14086:14095   */\n          dup5\n            /* \"#utility.yul\":14081:14084   */\n          dup10\n            /* \"#utility.yul\":14077:14096   */\n          add\n            /* \"#utility.yul\":14071:14097   */\n          mload\n            /* \"#utility.yul\":14129:14177   */\n          tag_265\n            /* \"#utility.yul\":14171:14175   */\n          0x1f\n            /* \"#utility.yul\":14163:14169   */\n          dup10\n            /* \"#utility.yul\":14159:14176   */\n          and\n            /* \"#utility.yul\":14148:14157   */\n          dup3\n            /* \"#utility.yul\":14129:14177   */\n          tag_110\n          jump\t// in\n        tag_265:\n            /* \"#utility.yul\":14121:14127   */\n          dup4\n            /* \"#utility.yul\":14114:14178   */\n          sstore\n            /* \"#utility.yul\":14036:14192   */\n          pop\n            /* \"#utility.yul\":14013:14192   */\n        tag_264:\n            /* \"#utility.yul\":14238:14239   */\n          0x01\n            /* \"#utility.yul\":14234:14235   */\n          0x02\n            /* \"#utility.yul\":14226:14232   */\n          dup9\n            /* \"#utility.yul\":14222:14236   */\n          mul\n            /* \"#utility.yul\":14218:14240   */\n          add\n            /* \"#utility.yul\":14212:14216   */\n          dup9\n            /* \"#utility.yul\":14205:14241   */\n          sstore\n            /* \"#utility.yul\":13640:14251   */\n          pop\n          pop\n          pop\n            /* \"#utility.yul\":13603:14490   */\n        tag_256:\n          pop\n            /* \"#utility.yul\":13193:14496   */\n          pop\n          pop\n          pop\n            /* \"#utility.yul\":13101:14496   */\n          pop\n          pop\n          jump\t// out\n\n        auxdata: 0xa2646970667358221220cfbfaa31daed28e0cda416db876fd84e30e14c2380b28668e20f9f0bd9c3b23964736f6c63430008120033\n    }\n}\n",
				"bytecode": {
					"linkReferences": {},
					"object": "608060405234801561001057600080fd5b5060405161001d9061007e565b604051809103906000f080158015610039573d6000803e3d6000fd5b506000806101000a81548173ffffffffffffffffffffffffffffffffffffffff021916908373ffffffffffffffffffffffffffffffffffffffff16021790555061008b565b610c9d806106e083390190565b6106468061009a6000396000f3fe608060405234801561001057600080fd5b506004361061004c5760003560e01c80630d6260f5146100515780635f0303431461006d5780639ec2568f1461009f578063a2384044146100bb575b600080fd5b61006b6004803603810190610066919061033b565b6100d9565b005b6100876004803603810190610082919061037b565b61016a565b60405161009693929190610447565b60405180910390f35b6100b960048036038101906100b491906104e3565b610299565b005b6100c36102dc565b6040516100d0919061056f565b60405180910390f35b60008054906101000a900473ffffffffffffffffffffffffffffffffffffffff1673ffffffffffffffffffffffffffffffffffffffff16639e42052483836040518363ffffffff1660e01b815260040161013492919061058a565b600060405180830381600087803b15801561014e57600080fd5b505af1158015610162573d6000803e3d6000fd5b505050505050565b600080606060008060009054906101000a900473ffffffffffffffffffffffffffffffffffffffff1673ffffffffffffffffffffffffffffffffffffffff16637cf736e0866040518263ffffffff1660e01b81526004016101cb91906105b3565b602060405180830381865afa1580156101e8573d6000803e3d6000fd5b505050506040513d601f19601f8201168201806040525081019061020c91906105e3565b905080600a60008303610254576040518060400160405280600781526020017f7265766f6b65640000000000000000000000000000000000000000000000000081525061028b565b6040518060400160405280600a81526020017f6c65676974696d617465000000000000000000000000000000000000000000008152505b935093509350509193909250565b806000806101000a81548173ffffffffffffffffffffffffffffffffffffffff021916908373ffffffffffffffffffffffffffffffffffffffff16021790555050565b60008054906101000a900473ffffffffffffffffffffffffffffffffffffffff1681565b600080fd5b6000819050919050565b61031881610305565b811461032357600080fd5b50565b6000813590506103358161030f565b92915050565b6000806040838503121561035257610351610300565b5b600061036085828601610326565b925050602061037185828601610326565b9150509250929050565b60006020828403121561039157610390610300565b5b600061039f84828501610326565b91505092915050565b6103b181610305565b82525050565b600081519050919050565b600082825260208201905092915050565b60005b838110156103f15780820151818401526020810190506103d6565b60008484015250505050565b6000601f19601f8301169050919050565b6000610419826103b7565b61042381856103c2565b93506104338185602086016103d3565b61043c816103fd565b840191505092915050565b600060608201905061045c60008301866103a8565b61046960208301856103a8565b818103604083015261047b818461040e565b9050949350505050565b600073ffffffffffffffffffffffffffffffffffffffff82169050919050565b60006104b082610485565b9050919050565b6104c0816104a5565b81146104cb57600080fd5b50565b6000813590506104dd816104b7565b92915050565b6000602082840312156104f9576104f8610300565b5b6000610507848285016104ce565b91505092915050565b6000819050919050565b600061053561053061052b84610485565b610510565b610485565b9050919050565b60006105478261051a565b9050919050565b60006105598261053c565b9050919050565b6105698161054e565b82525050565b60006020820190506105846000830184610560565b92915050565b600060408201905061059f60008301856103a8565b6105ac60208301846103a8565b9392505050565b60006020820190506105c860008301846103a8565b92915050565b6000815190506105dd8161030f565b92915050565b6000602082840312156105f9576105f8610300565b5b6000610607848285016105ce565b9150509291505056fea26469706673582212204171e8e5f107dd07ee1a8e63e8f63c393703828954df745175a49c16c42bd65964736f6c63430008120033608060405234801561001057600080fd5b506001600081905550610c75806100286000396000f3fe608060405234801561001057600080fd5b50600436106100575760003560e01c80631ae8579c1461005c5780637cf736e0146100665780639e42052414610096578063dab98e64146100b2578063e6b7e207146100e2575b600080fd5b610064610100565b005b610080600480360381019061007b91906104cb565b61014b565b60405161008d9190610507565b60405180910390f35b6100b060048036038101906100ab9190610522565b6101ce565b005b6100cc60048036038101906100c791906106a8565b6102de565b6040516100d99190610507565b60405180910390f35b6100ea610309565b6040516100f79190610507565b60405180910390f35b60005b600a81101561014857610134816040516020016101209190610769565b6040516020818303038152906040526102de565b508080610140906107be565b915050610103565b50565b60006001600083815260200190815260200160002060030160009054906101000a900460ff166101b0576040517f08c379a00000000000000000000000000000000000000000000000000000000081526004016101a790610863565b60405180910390fd5b60016000838152602001908152602001600020600001549050919050565b6001600083815260200190815260200160002060030160009054906101000a900460ff16610231576040517f08c379a000000000000000000000000000000000000000000000000000000000815260040161022890610863565b60405180910390fd5b60088110610259576001806000848152602001908152602001600020600201819055506102bf565b6005811061028257600060016000848152602001908152602001600020600201819055506102be565b7fffffffffffffffffffffffffffffffffffffffffffffffffffffffffffffffff60016000848152602001908152602001600020600201819055505b5b8060016000848152602001908152602001600020600001819055505050565b60006102ec6000548361031a565b6000808154809291906102fe906107be565b919050559050919050565b6000610315600061014b565b905090565b604051602001610329906108cf565b6040516020818303038152906040528051906020012081604051602001610350919061094a565b60405160208183030381529060405280519060200120036103f6576040518060800160405280600881526020018281526020016001815260200160011515815250600160008481526020019081526020016000206000820151816000015560208201518160010190816103c39190610b6d565b506040820151816002015560608201518160030160006101000a81548160ff02191690831515021790555090505061047d565b60405180608001604052806005815260200182815260200160008152602001600115158152506001600084815260200190815260200160002060008201518160000155602082015181600101908161044e9190610b6d565b506040820151816002015560608201518160030160006101000a81548160ff0219169083151502179055509050505b5050565b6000604051905090565b600080fd5b600080fd5b6000819050919050565b6104a881610495565b81146104b357600080fd5b50565b6000813590506104c58161049f565b92915050565b6000602082840312156104e1576104e061048b565b5b60006104ef848285016104b6565b91505092915050565b61050181610495565b82525050565b600060208201905061051c60008301846104f8565b92915050565b600080604083850312156105395761053861048b565b5b6000610547858286016104b6565b9250506020610558858286016104b6565b9150509250929050565b600080fd5b600080fd5b6000601f19601f8301169050919050565b7f4e487b7100000000000000000000000000000000000000000000000000000000600052604160045260246000fd5b6105b58261056c565b810181811067ffffffffffffffff821117156105d4576105d361057d565b5b80604052505050565b60006105e7610481565b90506105f382826105ac565b919050565b600067ffffffffffffffff8211156106135761061261057d565b5b61061c8261056c565b9050602081019050919050565b82818337600083830152505050565b600061064b610646846105f8565b6105dd565b90508281526020810184848401111561066757610666610567565b5b610672848285610629565b509392505050565b600082601f83011261068f5761068e610562565b5b813561069f848260208601610638565b91505092915050565b6000602082840312156106be576106bd61048b565b5b600082013567ffffffffffffffff8111156106dc576106db610490565b5b6106e88482850161067a565b91505092915050565b600081905092915050565b7f73616d706c650000000000000000000000000000000000000000000000000000600082015250565b60006107326006836106f1565b915061073d826106fc565b600682019050919050565b6000819050919050565b61076361075e82610495565b610748565b82525050565b600061077482610725565b91506107808284610752565b60208201915081905092915050565b7f4e487b7100000000000000000000000000000000000000000000000000000000600052601160045260246000fd5b60006107c982610495565b91507fffffffffffffffffffffffffffffffffffffffffffffffffffffffffffffffff82036107fb576107fa61078f565b5b600182019050919050565b600082825260208201905092915050565b7f536f7572636520646f6573206e6f742065786973740000000000000000000000600082015250565b600061084d601583610806565b915061085882610817565b602082019050919050565b6000602082019050818103600083015261087c81610840565b9050919050565b7f3931310000000000000000000000000000000000000000000000000000000000600082015250565b60006108b96003836106f1565b91506108c482610883565b600382019050919050565b60006108da826108ac565b9150819050919050565b600081519050919050565b60005b8381101561090d5780820151818401526020810190506108f2565b60008484015250505050565b6000610924826108e4565b61092e81856106f1565b935061093e8185602086016108ef565b80840191505092915050565b60006109568284610919565b915081905092915050565b7f4e487b7100000000000000000000000000000000000000000000000000000000600052602260045260246000fd5b600060028204905060018216806109a857607f821691505b6020821081036109bb576109ba610961565b5b50919050565b60008190508160005260206000209050919050565b60006020601f8301049050919050565b600082821b905092915050565b600060088302610a237fffffffffffffffffffffffffffffffffffffffffffffffffffffffffffffffff826109e6565b610a2d86836109e6565b95508019841693508086168417925050509392505050565b6000819050919050565b6000610a6a610a65610a6084610495565b610a45565b610495565b9050919050565b6000819050919050565b610a8483610a4f565b610a98610a9082610a71565b8484546109f3565b825550505050565b600090565b610aad610aa0565b610ab8818484610a7b565b505050565b5b81811015610adc57610ad1600082610aa5565b600181019050610abe565b5050565b601f821115610b2157610af2816109c1565b610afb846109d6565b81016020851015610b0a578190505b610b1e610b16856109d6565b830182610abd565b50505b505050565b600082821c905092915050565b6000610b4460001984600802610b26565b1980831691505092915050565b6000610b5d8383610b33565b9150826002028217905092915050565b610b76826108e4565b67ffffffffffffffff811115610b8f57610b8e61057d565b5b610b998254610990565b610ba4828285610ae0565b600060209050601f831160018114610bd75760008415610bc5578287015190505b610bcf8582610b51565b865550610c37565b601f198416610be5866109c1565b60005b82811015610c0d57848901518255600182019150602085019450602081019050610be8565b86831015610c2a5784890151610c26601f891682610b33565b8355505b6001600288020188555050505b50505050505056fea2646970667358221220cfbfaa31daed28e0cda416db876fd84e30e14c2380b28668e20f9f0bd9c3b23964736f6c63430008120033",
					"opcodes": "PUSH1 0x80 PUSH1 0x40 MSTORE CALLVALUE DUP1 ISZERO PUSH2 0x10 JUMPI PUSH1 0x0 DUP1 REVERT JUMPDEST POP PUSH1 0x40 MLOAD PUSH2 0x1D SWAP1 PUSH2 0x7E JUMP JUMPDEST PUSH1 0x40 MLOAD DUP1 SWAP2 SUB SWAP1 PUSH1 0x0 CREATE DUP1 ISZERO DUP1 ISZERO PUSH2 0x39 JUMPI RETURNDATASIZE PUSH1 0x0 DUP1 RETURNDATACOPY RETURNDATASIZE PUSH1 0x0 REVERT JUMPDEST POP PUSH1 0x0 DUP1 PUSH2 0x100 EXP DUP2 SLOAD DUP2 PUSH20 0xFFFFFFFFFFFFFFFFFFFFFFFFFFFFFFFFFFFFFFFF MUL NOT AND SWAP1 DUP4 PUSH20 0xFFFFFFFFFFFFFFFFFFFFFFFFFFFFFFFFFFFFFFFF AND MUL OR SWAP1 SSTORE POP PUSH2 0x8B JUMP JUMPDEST PUSH2 0xC9D DUP1 PUSH2 0x6E0 DUP4 CODECOPY ADD SWAP1 JUMP JUMPDEST PUSH2 0x646 DUP1 PUSH2 0x9A PUSH1 0x0 CODECOPY PUSH1 0x0 RETURN INVALID PUSH1 0x80 PUSH1 0x40 MSTORE CALLVALUE DUP1 ISZERO PUSH2 0x10 JUMPI PUSH1 0x0 DUP1 REVERT JUMPDEST POP PUSH1 0x4 CALLDATASIZE LT PUSH2 0x4C JUMPI PUSH1 0x0 CALLDATALOAD PUSH1 0xE0 SHR DUP1 PUSH4 0xD6260F5 EQ PUSH2 0x51 JUMPI DUP1 PUSH4 0x5F030343 EQ PUSH2 0x6D JUMPI DUP1 PUSH4 0x9EC2568F EQ PUSH2 0x9F JUMPI DUP1 PUSH4 0xA2384044 EQ PUSH2 0xBB JUMPI JUMPDEST PUSH1 0x0 DUP1 REVERT JUMPDEST PUSH2 0x6B PUSH1 0x4 DUP1 CALLDATASIZE SUB DUP2 ADD SWAP1 PUSH2 0x66 SWAP2 SWAP1 PUSH2 0x33B JUMP JUMPDEST PUSH2 0xD9 JUMP JUMPDEST STOP JUMPDEST PUSH2 0x87 PUSH1 0x4 DUP1 CALLDATASIZE SUB DUP2 ADD SWAP1 PUSH2 0x82 SWAP2 SWAP1 PUSH2 0x37B JUMP JUMPDEST PUSH2 0x16A JUMP JUMPDEST PUSH1 0x40 MLOAD PUSH2 0x96 SWAP4 SWAP3 SWAP2 SWAP1 PUSH2 0x447 JUMP JUMPDEST PUSH1 0x40 MLOAD DUP1 SWAP2 SUB SWAP1 RETURN JUMPDEST PUSH2 0xB9 PUSH1 0x4 DUP1 CALLDATASIZE SUB DUP2 ADD SWAP1 PUSH2 0xB4 SWAP2 SWAP1 PUSH2 0x4E3 JUMP JUMPDEST PUSH2 0x299 JUMP JUMPDEST STOP JUMPDEST PUSH2 0xC3 PUSH2 0x2DC JUMP JUMPDEST PUSH1 0x40 MLOAD PUSH2 0xD0 SWAP2 SWAP1 PUSH2 0x56F JUMP JUMPDEST PUSH1 0x40 MLOAD DUP1 SWAP2 SUB SWAP1 RETURN JUMPDEST PUSH1 0x0 DUP1 SLOAD SWAP1 PUSH2 0x100 EXP SWAP1 DIV PUSH20 0xFFFFFFFFFFFFFFFFFFFFFFFFFFFFFFFFFFFFFFFF AND PUSH20 0xFFFFFFFFFFFFFFFFFFFFFFFFFFFFFFFFFFFFFFFF AND PUSH4 0x9E420524 DUP4 DUP4 PUSH1 0x40 MLOAD DUP4 PUSH4 0xFFFFFFFF AND PUSH1 0xE0 SHL DUP2 MSTORE PUSH1 0x4 ADD PUSH2 0x134 SWAP3 SWAP2 SWAP1 PUSH2 0x58A JUMP JUMPDEST PUSH1 0x0 PUSH1 0x40 MLOAD DUP1 DUP4 SUB DUP2 PUSH1 0x0 DUP8 DUP1 EXTCODESIZE ISZERO DUP1 ISZERO PUSH2 0x14E JUMPI PUSH1 0x0 DUP1 REVERT JUMPDEST POP GAS CALL ISZERO DUP1 ISZERO PUSH2 0x162 JUMPI RETURNDATASIZE PUSH1 0x0 DUP1 RETURNDATACOPY RETURNDATASIZE PUSH1 0x0 REVERT JUMPDEST POP POP POP POP POP POP JUMP JUMPDEST PUSH1 0x0 DUP1 PUSH1 0x60 PUSH1 0x0 DUP1 PUSH1 0x0 SWAP1 SLOAD SWAP1 PUSH2 0x100 EXP SWAP1 DIV PUSH20 0xFFFFFFFFFFFFFFFFFFFFFFFFFFFFFFFFFFFFFFFF AND PUSH20 0xFFFFFFFFFFFFFFFFFFFFFFFFFFFFFFFFFFFFFFFF AND PUSH4 0x7CF736E0 DUP7 PUSH1 0x40 MLOAD DUP3 PUSH4 0xFFFFFFFF AND PUSH1 0xE0 SHL DUP2 MSTORE PUSH1 0x4 ADD PUSH2 0x1CB SWAP2 SWAP1 PUSH2 0x5B3 JUMP JUMPDEST PUSH1 0x20 PUSH1 0x40 MLOAD DUP1 DUP4 SUB DUP2 DUP7 GAS STATICCALL ISZERO DUP1 ISZERO PUSH2 0x1E8 JUMPI RETURNDATASIZE PUSH1 0x0 DUP1 RETURNDATACOPY RETURNDATASIZE PUSH1 0x0 REVERT JUMPDEST POP POP POP POP PUSH1 0x40 MLOAD RETURNDATASIZE PUSH1 0x1F NOT PUSH1 0x1F DUP3 ADD AND DUP3 ADD DUP1 PUSH1 0x40 MSTORE POP DUP2 ADD SWAP1 PUSH2 0x20C SWAP2 SWAP1 PUSH2 0x5E3 JUMP JUMPDEST SWAP1 POP DUP1 PUSH1 0xA PUSH1 0x0 DUP4 SUB PUSH2 0x254 JUMPI PUSH1 0x40 MLOAD DUP1 PUSH1 0x40 ADD PUSH1 0x40 MSTORE DUP1 PUSH1 0x7 DUP2 MSTORE PUSH1 0x20 ADD PUSH32 0x7265766F6B656400000000000000000000000000000000000000000000000000 DUP2 MSTORE POP PUSH2 0x28B JUMP JUMPDEST PUSH1 0x40 MLOAD DUP1 PUSH1 0x40 ADD PUSH1 0x40 MSTORE DUP1 PUSH1 0xA DUP2 MSTORE PUSH1 0x20 ADD PUSH32 0x6C65676974696D61746500000000000000000000000000000000000000000000 DUP2 MSTORE POP JUMPDEST SWAP4 POP SWAP4 POP SWAP4 POP POP SWAP2 SWAP4 SWAP1 SWAP3 POP JUMP JUMPDEST DUP1 PUSH1 0x0 DUP1 PUSH2 0x100 EXP DUP2 SLOAD DUP2 PUSH20 0xFFFFFFFFFFFFFFFFFFFFFFFFFFFFFFFFFFFFFFFF MUL NOT AND SWAP1 DUP4 PUSH20 0xFFFFFFFFFFFFFFFFFFFFFFFFFFFFFFFFFFFFFFFF AND MUL OR SWAP1 SSTORE POP POP JUMP JUMPDEST PUSH1 0x0 DUP1 SLOAD SWAP1 PUSH2 0x100 EXP SWAP1 DIV PUSH20 0xFFFFFFFFFFFFFFFFFFFFFFFFFFFFFFFFFFFFFFFF AND DUP2 JUMP JUMPDEST PUSH1 0x0 DUP1 REVERT JUMPDEST PUSH1 0x0 DUP2 SWAP1 POP SWAP2 SWAP1 POP JUMP JUMPDEST PUSH2 0x318 DUP2 PUSH2 0x305 JUMP JUMPDEST DUP2 EQ PUSH2 0x323 JUMPI PUSH1 0x0 DUP1 REVERT JUMPDEST POP JUMP JUMPDEST PUSH1 0x0 DUP2 CALLDATALOAD SWAP1 POP PUSH2 0x335 DUP2 PUSH2 0x30F JUMP JUMPDEST SWAP3 SWAP2 POP POP JUMP JUMPDEST PUSH1 0x0 DUP1 PUSH1 0x40 DUP4 DUP6 SUB SLT ISZERO PUSH2 0x352 JUMPI PUSH2 0x351 PUSH2 0x300 JUMP JUMPDEST JUMPDEST PUSH1 0x0 PUSH2 0x360 DUP6 DUP3 DUP7 ADD PUSH2 0x326 JUMP JUMPDEST SWAP3 POP POP PUSH1 0x20 PUSH2 0x371 DUP6 DUP3 DUP7 ADD PUSH2 0x326 JUMP JUMPDEST SWAP2 POP POP SWAP3 POP SWAP3 SWAP1 POP JUMP JUMPDEST PUSH1 0x0 PUSH1 0x20 DUP3 DUP5 SUB SLT ISZERO PUSH2 0x391 JUMPI PUSH2 0x390 PUSH2 0x300 JUMP JUMPDEST JUMPDEST PUSH1 0x0 PUSH2 0x39F DUP5 DUP3 DUP6 ADD PUSH2 0x326 JUMP JUMPDEST SWAP2 POP POP SWAP3 SWAP2 POP POP JUMP JUMPDEST PUSH2 0x3B1 DUP2 PUSH2 0x305 JUMP JUMPDEST DUP3 MSTORE POP POP JUMP JUMPDEST PUSH1 0x0 DUP2 MLOAD SWAP1 POP SWAP2 SWAP1 POP JUMP JUMPDEST PUSH1 0x0 DUP3 DUP3 MSTORE PUSH1 0x20 DUP3 ADD SWAP1 POP SWAP3 SWAP2 POP POP JUMP JUMPDEST PUSH1 0x0 JUMPDEST DUP4 DUP2 LT ISZERO PUSH2 0x3F1 JUMPI DUP1 DUP3 ADD MLOAD DUP2 DUP5 ADD MSTORE PUSH1 0x20 DUP2 ADD SWAP1 POP PUSH2 0x3D6 JUMP JUMPDEST PUSH1 0x0 DUP5 DUP5 ADD MSTORE POP POP POP POP JUMP JUMPDEST PUSH1 0x0 PUSH1 0x1F NOT PUSH1 0x1F DUP4 ADD AND SWAP1 POP SWAP2 SWAP1 POP JUMP JUMPDEST PUSH1 0x0 PUSH2 0x419 DUP3 PUSH2 0x3B7 JUMP JUMPDEST PUSH2 0x423 DUP2 DUP6 PUSH2 0x3C2 JUMP JUMPDEST SWAP4 POP PUSH2 0x433 DUP2 DUP6 PUSH1 0x20 DUP7 ADD PUSH2 0x3D3 JUMP JUMPDEST PUSH2 0x43C DUP2 PUSH2 0x3FD JUMP JUMPDEST DUP5 ADD SWAP2 POP POP SWAP3 SWAP2 POP POP JUMP JUMPDEST PUSH1 0x0 PUSH1 0x60 DUP3 ADD SWAP1 POP PUSH2 0x45C PUSH1 0x0 DUP4 ADD DUP7 PUSH2 0x3A8 JUMP JUMPDEST PUSH2 0x469 PUSH1 0x20 DUP4 ADD DUP6 PUSH2 0x3A8 JUMP JUMPDEST DUP2 DUP2 SUB PUSH1 0x40 DUP4 ADD MSTORE PUSH2 0x47B DUP2 DUP5 PUSH2 0x40E JUMP JUMPDEST SWAP1 POP SWAP5 SWAP4 POP POP POP POP JUMP JUMPDEST PUSH1 0x0 PUSH20 0xFFFFFFFFFFFFFFFFFFFFFFFFFFFFFFFFFFFFFFFF DUP3 AND SWAP1 POP SWAP2 SWAP1 POP JUMP JUMPDEST PUSH1 0x0 PUSH2 0x4B0 DUP3 PUSH2 0x485 JUMP JUMPDEST SWAP1 POP SWAP2 SWAP1 POP JUMP JUMPDEST PUSH2 0x4C0 DUP2 PUSH2 0x4A5 JUMP JUMPDEST DUP2 EQ PUSH2 0x4CB JUMPI PUSH1 0x0 DUP1 REVERT JUMPDEST POP JUMP JUMPDEST PUSH1 0x0 DUP2 CALLDATALOAD SWAP1 POP PUSH2 0x4DD DUP2 PUSH2 0x4B7 JUMP JUMPDEST SWAP3 SWAP2 POP POP JUMP JUMPDEST PUSH1 0x0 PUSH1 0x20 DUP3 DUP5 SUB SLT ISZERO PUSH2 0x4F9 JUMPI PUSH2 0x4F8 PUSH2 0x300 JUMP JUMPDEST JUMPDEST PUSH1 0x0 PUSH2 0x507 DUP5 DUP3 DUP6 ADD PUSH2 0x4CE JUMP JUMPDEST SWAP2 POP POP SWAP3 SWAP2 POP POP JUMP JUMPDEST PUSH1 0x0 DUP2 SWAP1 POP SWAP2 SWAP1 POP JUMP JUMPDEST PUSH1 0x0 PUSH2 0x535 PUSH2 0x530 PUSH2 0x52B DUP5 PUSH2 0x485 JUMP JUMPDEST PUSH2 0x510 JUMP JUMPDEST PUSH2 0x485 JUMP JUMPDEST SWAP1 POP SWAP2 SWAP1 POP JUMP JUMPDEST PUSH1 0x0 PUSH2 0x547 DUP3 PUSH2 0x51A JUMP JUMPDEST SWAP1 POP SWAP2 SWAP1 POP JUMP JUMPDEST PUSH1 0x0 PUSH2 0x559 DUP3 PUSH2 0x53C JUMP JUMPDEST SWAP1 POP SWAP2 SWAP1 POP JUMP JUMPDEST PUSH2 0x569 DUP2 PUSH2 0x54E JUMP JUMPDEST DUP3 MSTORE POP POP JUMP JUMPDEST PUSH1 0x0 PUSH1 0x20 DUP3 ADD SWAP1 POP PUSH2 0x584 PUSH1 0x0 DUP4 ADD DUP5 PUSH2 0x560 JUMP JUMPDEST SWAP3 SWAP2 POP POP JUMP JUMPDEST PUSH1 0x0 PUSH1 0x40 DUP3 ADD SWAP1 POP PUSH2 0x59F PUSH1 0x0 DUP4 ADD DUP6 PUSH2 0x3A8 JUMP JUMPDEST PUSH2 0x5AC PUSH1 0x20 DUP4 ADD DUP5 PUSH2 0x3A8 JUMP JUMPDEST SWAP4 SWAP3 POP POP POP JUMP JUMPDEST PUSH1 0x0 PUSH1 0x20 DUP3 ADD SWAP1 POP PUSH2 0x5C8 PUSH1 0x0 DUP4 ADD DUP5 PUSH2 0x3A8 JUMP JUMPDEST SWAP3 SWAP2 POP POP JUMP JUMPDEST PUSH1 0x0 DUP2 MLOAD SWAP1 POP PUSH2 0x5DD DUP2 PUSH2 0x30F JUMP JUMPDEST SWAP3 SWAP2 POP POP JUMP JUMPDEST PUSH1 0x0 PUSH1 0x20 DUP3 DUP5 SUB SLT ISZERO PUSH2 0x5F9 JUMPI PUSH2 0x5F8 PUSH2 0x300 JUMP JUMPDEST JUMPDEST PUSH1 0x0 PUSH2 0x607 DUP5 DUP3 DUP6 ADD PUSH2 0x5CE JUMP JUMPDEST SWAP2 POP POP SWAP3 SWAP2 POP POP JUMP INVALID LOG2 PUSH5 0x6970667358 0x22 SLT KECCAK256 COINBASE PUSH18 0xE8E5F107DD07EE1A8E63E8F63C3937038289 SLOAD 0xDF PUSH21 0x5175A49C16C42BD65964736F6C6343000812003360 DUP1 PUSH1 0x40 MSTORE CALLVALUE DUP1 ISZERO PUSH2 0x10 JUMPI PUSH1 0x0 DUP1 REVERT JUMPDEST POP PUSH1 0x1 PUSH1 0x0 DUP2 SWAP1 SSTORE POP PUSH2 0xC75 DUP1 PUSH2 0x28 PUSH1 0x0 CODECOPY PUSH1 0x0 RETURN INVALID PUSH1 0x80 PUSH1 0x40 MSTORE CALLVALUE DUP1 ISZERO PUSH2 0x10 JUMPI PUSH1 0x0 DUP1 REVERT JUMPDEST POP PUSH1 0x4 CALLDATASIZE LT PUSH2 0x57 JUMPI PUSH1 0x0 CALLDATALOAD PUSH1 0xE0 SHR DUP1 PUSH4 0x1AE8579C EQ PUSH2 0x5C JUMPI DUP1 PUSH4 0x7CF736E0 EQ PUSH2 0x66 JUMPI DUP1 PUSH4 0x9E420524 EQ PUSH2 0x96 JUMPI DUP1 PUSH4 0xDAB98E64 EQ PUSH2 0xB2 JUMPI DUP1 PUSH4 0xE6B7E207 EQ PUSH2 0xE2 JUMPI JUMPDEST PUSH1 0x0 DUP1 REVERT JUMPDEST PUSH2 0x64 PUSH2 0x100 JUMP JUMPDEST STOP JUMPDEST PUSH2 0x80 PUSH1 0x4 DUP1 CALLDATASIZE SUB DUP2 ADD SWAP1 PUSH2 0x7B SWAP2 SWAP1 PUSH2 0x4CB JUMP JUMPDEST PUSH2 0x14B JUMP JUMPDEST PUSH1 0x40 MLOAD PUSH2 0x8D SWAP2 SWAP1 PUSH2 0x507 JUMP JUMPDEST PUSH1 0x40 MLOAD DUP1 SWAP2 SUB SWAP1 RETURN JUMPDEST PUSH2 0xB0 PUSH1 0x4 DUP1 CALLDATASIZE SUB DUP2 ADD SWAP1 PUSH2 0xAB SWAP2 SWAP1 PUSH2 0x522 JUMP JUMPDEST PUSH2 0x1CE JUMP JUMPDEST STOP JUMPDEST PUSH2 0xCC PUSH1 0x4 DUP1 CALLDATASIZE SUB DUP2 ADD SWAP1 PUSH2 0xC7 SWAP2 SWAP1 PUSH2 0x6A8 JUMP JUMPDEST PUSH2 0x2DE JUMP JUMPDEST PUSH1 0x40 MLOAD PUSH2 0xD9 SWAP2 SWAP1 PUSH2 0x507 JUMP JUMPDEST PUSH1 0x40 MLOAD DUP1 SWAP2 SUB SWAP1 RETURN JUMPDEST PUSH2 0xEA PUSH2 0x309 JUMP JUMPDEST PUSH1 0x40 MLOAD PUSH2 0xF7 SWAP2 SWAP1 PUSH2 0x507 JUMP JUMPDEST PUSH1 0x40 MLOAD DUP1 SWAP2 SUB SWAP1 RETURN JUMPDEST PUSH1 0x0 JUMPDEST PUSH1 0xA DUP2 LT ISZERO PUSH2 0x148 JUMPI PUSH2 0x134 DUP2 PUSH1 0x40 MLOAD PUSH1 0x20 ADD PUSH2 0x120 SWAP2 SWAP1 PUSH2 0x769 JUMP JUMPDEST PUSH1 0x40 MLOAD PUSH1 0x20 DUP2 DUP4 SUB SUB DUP2 MSTORE SWAP1 PUSH1 0x40 MSTORE PUSH2 0x2DE JUMP JUMPDEST POP DUP1 DUP1 PUSH2 0x140 SWAP1 PUSH2 0x7BE JUMP JUMPDEST SWAP2 POP POP PUSH2 0x103 JUMP JUMPDEST POP JUMP JUMPDEST PUSH1 0x0 PUSH1 0x1 PUSH1 0x0 DUP4 DUP2 MSTORE PUSH1 0x20 ADD SWAP1 DUP2 MSTORE PUSH1 0x20 ADD PUSH1 0x0 KECCAK256 PUSH1 0x3 ADD PUSH1 0x0 SWAP1 SLOAD SWAP1 PUSH2 0x100 EXP SWAP1 DIV PUSH1 0xFF AND PUSH2 0x1B0 JUMPI PUSH1 0x40 MLOAD PUSH32 0x8C379A000000000000000000000000000000000000000000000000000000000 DUP2 MSTORE PUSH1 0x4 ADD PUSH2 0x1A7 SWAP1 PUSH2 0x863 JUMP JUMPDEST PUSH1 0x40 MLOAD DUP1 SWAP2 SUB SWAP1 REVERT JUMPDEST PUSH1 0x1 PUSH1 0x0 DUP4 DUP2 MSTORE PUSH1 0x20 ADD SWAP1 DUP2 MSTORE PUSH1 0x20 ADD PUSH1 0x0 KECCAK256 PUSH1 0x0 ADD SLOAD SWAP1 POP SWAP2 SWAP1 POP JUMP JUMPDEST PUSH1 0x1 PUSH1 0x0 DUP4 DUP2 MSTORE PUSH1 0x20 ADD SWAP1 DUP2 MSTORE PUSH1 0x20 ADD PUSH1 0x0 KECCAK256 PUSH1 0x3 ADD PUSH1 0x0 SWAP1 SLOAD SWAP1 PUSH2 0x100 EXP SWAP1 DIV PUSH1 0xFF AND PUSH2 0x231 JUMPI PUSH1 0x40 MLOAD PUSH32 0x8C379A000000000000000000000000000000000000000000000000000000000 DUP2 MSTORE PUSH1 0x4 ADD PUSH2 0x228 SWAP1 PUSH2 0x863 JUMP JUMPDEST PUSH1 0x40 MLOAD DUP1 SWAP2 SUB SWAP1 REVERT JUMPDEST PUSH1 0x8 DUP2 LT PUSH2 0x259 JUMPI PUSH1 0x1 DUP1 PUSH1 0x0 DUP5 DUP2 MSTORE PUSH1 0x20 ADD SWAP1 DUP2 MSTORE PUSH1 0x20 ADD PUSH1 0x0 KECCAK256 PUSH1 0x2 ADD DUP2 SWAP1 SSTORE POP PUSH2 0x2BF JUMP JUMPDEST PUSH1 0x5 DUP2 LT PUSH2 0x282 JUMPI PUSH1 0x0 PUSH1 0x1 PUSH1 0x0 DUP5 DUP2 MSTORE PUSH1 0x20 ADD SWAP1 DUP2 MSTORE PUSH1 0x20 ADD PUSH1 0x0 KECCAK256 PUSH1 0x2 ADD DUP2 SWAP1 SSTORE POP PUSH2 0x2BE JUMP JUMPDEST PUSH32 0xFFFFFFFFFFFFFFFFFFFFFFFFFFFFFFFFFFFFFFFFFFFFFFFFFFFFFFFFFFFFFFFF PUSH1 0x1 PUSH1 0x0 DUP5 DUP2 MSTORE PUSH1 0x20 ADD SWAP1 DUP2 MSTORE PUSH1 0x20 ADD PUSH1 0x0 KECCAK256 PUSH1 0x2 ADD DUP2 SWAP1 SSTORE POP JUMPDEST JUMPDEST DUP1 PUSH1 0x1 PUSH1 0x0 DUP5 DUP2 MSTORE PUSH1 0x20 ADD SWAP1 DUP2 MSTORE PUSH1 0x20 ADD PUSH1 0x0 KECCAK256 PUSH1 0x0 ADD DUP2 SWAP1 SSTORE POP POP POP JUMP JUMPDEST PUSH1 0x0 PUSH2 0x2EC PUSH1 0x0 SLOAD DUP4 PUSH2 0x31A JUMP JUMPDEST PUSH1 0x0 DUP1 DUP2 SLOAD DUP1 SWAP3 SWAP2 SWAP1 PUSH2 0x2FE SWAP1 PUSH2 0x7BE JUMP JUMPDEST SWAP2 SWAP1 POP SSTORE SWAP1 POP SWAP2 SWAP1 POP JUMP JUMPDEST PUSH1 0x0 PUSH2 0x315 PUSH1 0x0 PUSH2 0x14B JUMP JUMPDEST SWAP1 POP SWAP1 JUMP JUMPDEST PUSH1 0x40 MLOAD PUSH1 0x20 ADD PUSH2 0x329 SWAP1 PUSH2 0x8CF JUMP JUMPDEST PUSH1 0x40 MLOAD PUSH1 0x20 DUP2 DUP4 SUB SUB DUP2 MSTORE SWAP1 PUSH1 0x40 MSTORE DUP1 MLOAD SWAP1 PUSH1 0x20 ADD KECCAK256 DUP2 PUSH1 0x40 MLOAD PUSH1 0x20 ADD PUSH2 0x350 SWAP2 SWAP1 PUSH2 0x94A JUMP JUMPDEST PUSH1 0x40 MLOAD PUSH1 0x20 DUP2 DUP4 SUB SUB DUP2 MSTORE SWAP1 PUSH1 0x40 MSTORE DUP1 MLOAD SWAP1 PUSH1 0x20 ADD KECCAK256 SUB PUSH2 0x3F6 JUMPI PUSH1 0x40 MLOAD DUP1 PUSH1 0x80 ADD PUSH1 0x40 MSTORE DUP1 PUSH1 0x8 DUP2 MSTORE PUSH1 0x20 ADD DUP3 DUP2 MSTORE PUSH1 0x20 ADD PUSH1 0x1 DUP2 MSTORE PUSH1 0x20 ADD PUSH1 0x1 ISZERO ISZERO DUP2 MSTORE POP PUSH1 0x1 PUSH1 0x0 DUP5 DUP2 MSTORE PUSH1 0x20 ADD SWAP1 DUP2 MSTORE PUSH1 0x20 ADD PUSH1 0x0 KECCAK256 PUSH1 0x0 DUP3 ADD MLOAD DUP2 PUSH1 0x0 ADD SSTORE PUSH1 0x20 DUP3 ADD MLOAD DUP2 PUSH1 0x1 ADD SWAP1 DUP2 PUSH2 0x3C3 SWAP2 SWAP1 PUSH2 0xB6D JUMP JUMPDEST POP PUSH1 0x40 DUP3 ADD MLOAD DUP2 PUSH1 0x2 ADD SSTORE PUSH1 0x60 DUP3 ADD MLOAD DUP2 PUSH1 0x3 ADD PUSH1 0x0 PUSH2 0x100 EXP DUP2 SLOAD DUP2 PUSH1 0xFF MUL NOT AND SWAP1 DUP4 ISZERO ISZERO MUL OR SWAP1 SSTORE POP SWAP1 POP POP PUSH2 0x47D JUMP JUMPDEST PUSH1 0x40 MLOAD DUP1 PUSH1 0x80 ADD PUSH1 0x40 MSTORE DUP1 PUSH1 0x5 DUP2 MSTORE PUSH1 0x20 ADD DUP3 DUP2 MSTORE PUSH1 0x20 ADD PUSH1 0x0 DUP2 MSTORE PUSH1 0x20 ADD PUSH1 0x1 ISZERO ISZERO DUP2 MSTORE POP PUSH1 0x1 PUSH1 0x0 DUP5 DUP2 MSTORE PUSH1 0x20 ADD SWAP1 DUP2 MSTORE PUSH1 0x20 ADD PUSH1 0x0 KECCAK256 PUSH1 0x0 DUP3 ADD MLOAD DUP2 PUSH1 0x0 ADD SSTORE PUSH1 0x20 DUP3 ADD MLOAD DUP2 PUSH1 0x1 ADD SWAP1 DUP2 PUSH2 0x44E SWAP2 SWAP1 PUSH2 0xB6D JUMP JUMPDEST POP PUSH1 0x40 DUP3 ADD MLOAD DUP2 PUSH1 0x2 ADD SSTORE PUSH1 0x60 DUP3 ADD MLOAD DUP2 PUSH1 0x3 ADD PUSH1 0x0 PUSH2 0x100 EXP DUP2 SLOAD DUP2 PUSH1 0xFF MUL NOT AND SWAP1 DUP4 ISZERO ISZERO MUL OR SWAP1 SSTORE POP SWAP1 POP POP JUMPDEST POP POP JUMP JUMPDEST PUSH1 0x0 PUSH1 0x40 MLOAD SWAP1 POP SWAP1 JUMP JUMPDEST PUSH1 0x0 DUP1 REVERT JUMPDEST PUSH1 0x0 DUP1 REVERT JUMPDEST PUSH1 0x0 DUP2 SWAP1 POP SWAP2 SWAP1 POP JUMP JUMPDEST PUSH2 0x4A8 DUP2 PUSH2 0x495 JUMP JUMPDEST DUP2 EQ PUSH2 0x4B3 JUMPI PUSH1 0x0 DUP1 REVERT JUMPDEST POP JUMP JUMPDEST PUSH1 0x0 DUP2 CALLDATALOAD SWAP1 POP PUSH2 0x4C5 DUP2 PUSH2 0x49F JUMP JUMPDEST SWAP3 SWAP2 POP POP JUMP JUMPDEST PUSH1 0x0 PUSH1 0x20 DUP3 DUP5 SUB SLT ISZERO PUSH2 0x4E1 JUMPI PUSH2 0x4E0 PUSH2 0x48B JUMP JUMPDEST JUMPDEST PUSH1 0x0 PUSH2 0x4EF DUP5 DUP3 DUP6 ADD PUSH2 0x4B6 JUMP JUMPDEST SWAP2 POP POP SWAP3 SWAP2 POP POP JUMP JUMPDEST PUSH2 0x501 DUP2 PUSH2 0x495 JUMP JUMPDEST DUP3 MSTORE POP POP JUMP JUMPDEST PUSH1 0x0 PUSH1 0x20 DUP3 ADD SWAP1 POP PUSH2 0x51C PUSH1 0x0 DUP4 ADD DUP5 PUSH2 0x4F8 JUMP JUMPDEST SWAP3 SWAP2 POP POP JUMP JUMPDEST PUSH1 0x0 DUP1 PUSH1 0x40 DUP4 DUP6 SUB SLT ISZERO PUSH2 0x539 JUMPI PUSH2 0x538 PUSH2 0x48B JUMP JUMPDEST JUMPDEST PUSH1 0x0 PUSH2 0x547 DUP6 DUP3 DUP7 ADD PUSH2 0x4B6 JUMP JUMPDEST SWAP3 POP POP PUSH1 0x20 PUSH2 0x558 DUP6 DUP3 DUP7 ADD PUSH2 0x4B6 JUMP JUMPDEST SWAP2 POP POP SWAP3 POP SWAP3 SWAP1 POP JUMP JUMPDEST PUSH1 0x0 DUP1 REVERT JUMPDEST PUSH1 0x0 DUP1 REVERT JUMPDEST PUSH1 0x0 PUSH1 0x1F NOT PUSH1 0x1F DUP4 ADD AND SWAP1 POP SWAP2 SWAP1 POP JUMP JUMPDEST PUSH32 0x4E487B7100000000000000000000000000000000000000000000000000000000 PUSH1 0x0 MSTORE PUSH1 0x41 PUSH1 0x4 MSTORE PUSH1 0x24 PUSH1 0x0 REVERT JUMPDEST PUSH2 0x5B5 DUP3 PUSH2 0x56C JUMP JUMPDEST DUP2 ADD DUP2 DUP2 LT PUSH8 0xFFFFFFFFFFFFFFFF DUP3 GT OR ISZERO PUSH2 0x5D4 JUMPI PUSH2 0x5D3 PUSH2 0x57D JUMP JUMPDEST JUMPDEST DUP1 PUSH1 0x40 MSTORE POP POP POP JUMP JUMPDEST PUSH1 0x0 PUSH2 0x5E7 PUSH2 0x481 JUMP JUMPDEST SWAP1 POP PUSH2 0x5F3 DUP3 DUP3 PUSH2 0x5AC JUMP JUMPDEST SWAP2 SWAP1 POP JUMP JUMPDEST PUSH1 0x0 PUSH8 0xFFFFFFFFFFFFFFFF DUP3 GT ISZERO PUSH2 0x613 JUMPI PUSH2 0x612 PUSH2 0x57D JUMP JUMPDEST JUMPDEST PUSH2 0x61C DUP3 PUSH2 0x56C JUMP JUMPDEST SWAP1 POP PUSH1 0x20 DUP2 ADD SWAP1 POP SWAP2 SWAP1 POP JUMP JUMPDEST DUP3 DUP2 DUP4 CALLDATACOPY PUSH1 0x0 DUP4 DUP4 ADD MSTORE POP POP POP JUMP JUMPDEST PUSH1 0x0 PUSH2 0x64B PUSH2 0x646 DUP5 PUSH2 0x5F8 JUMP JUMPDEST PUSH2 0x5DD JUMP JUMPDEST SWAP1 POP DUP3 DUP2 MSTORE PUSH1 0x20 DUP2 ADD DUP5 DUP5 DUP5 ADD GT ISZERO PUSH2 0x667 JUMPI PUSH2 0x666 PUSH2 0x567 JUMP JUMPDEST JUMPDEST PUSH2 0x672 DUP5 DUP3 DUP6 PUSH2 0x629 JUMP JUMPDEST POP SWAP4 SWAP3 POP POP POP JUMP JUMPDEST PUSH1 0x0 DUP3 PUSH1 0x1F DUP4 ADD SLT PUSH2 0x68F JUMPI PUSH2 0x68E PUSH2 0x562 JUMP JUMPDEST JUMPDEST DUP2 CALLDATALOAD PUSH2 0x69F DUP5 DUP3 PUSH1 0x20 DUP7 ADD PUSH2 0x638 JUMP JUMPDEST SWAP2 POP POP SWAP3 SWAP2 POP POP JUMP JUMPDEST PUSH1 0x0 PUSH1 0x20 DUP3 DUP5 SUB SLT ISZERO PUSH2 0x6BE JUMPI PUSH2 0x6BD PUSH2 0x48B JUMP JUMPDEST JUMPDEST PUSH1 0x0 DUP3 ADD CALLDATALOAD PUSH8 0xFFFFFFFFFFFFFFFF DUP2 GT ISZERO PUSH2 0x6DC JUMPI PUSH2 0x6DB PUSH2 0x490 JUMP JUMPDEST JUMPDEST PUSH2 0x6E8 DUP5 DUP3 DUP6 ADD PUSH2 0x67A JUMP JUMPDEST SWAP2 POP POP SWAP3 SWAP2 POP POP JUMP JUMPDEST PUSH1 0x0 DUP2 SWAP1 POP SWAP3 SWAP2 POP POP JUMP JUMPDEST PUSH32 0x73616D706C650000000000000000000000000000000000000000000000000000 PUSH1 0x0 DUP3 ADD MSTORE POP JUMP JUMPDEST PUSH1 0x0 PUSH2 0x732 PUSH1 0x6 DUP4 PUSH2 0x6F1 JUMP JUMPDEST SWAP2 POP PUSH2 0x73D DUP3 PUSH2 0x6FC JUMP JUMPDEST PUSH1 0x6 DUP3 ADD SWAP1 POP SWAP2 SWAP1 POP JUMP JUMPDEST PUSH1 0x0 DUP2 SWAP1 POP SWAP2 SWAP1 POP JUMP JUMPDEST PUSH2 0x763 PUSH2 0x75E DUP3 PUSH2 0x495 JUMP JUMPDEST PUSH2 0x748 JUMP JUMPDEST DUP3 MSTORE POP POP JUMP JUMPDEST PUSH1 0x0 PUSH2 0x774 DUP3 PUSH2 0x725 JUMP JUMPDEST SWAP2 POP PUSH2 0x780 DUP3 DUP5 PUSH2 0x752 JUMP JUMPDEST PUSH1 0x20 DUP3 ADD SWAP2 POP DUP2 SWAP1 POP SWAP3 SWAP2 POP POP JUMP JUMPDEST PUSH32 0x4E487B7100000000000000000000000000000000000000000000000000000000 PUSH1 0x0 MSTORE PUSH1 0x11 PUSH1 0x4 MSTORE PUSH1 0x24 PUSH1 0x0 REVERT JUMPDEST PUSH1 0x0 PUSH2 0x7C9 DUP3 PUSH2 0x495 JUMP JUMPDEST SWAP2 POP PUSH32 0xFFFFFFFFFFFFFFFFFFFFFFFFFFFFFFFFFFFFFFFFFFFFFFFFFFFFFFFFFFFFFFFF DUP3 SUB PUSH2 0x7FB JUMPI PUSH2 0x7FA PUSH2 0x78F JUMP JUMPDEST JUMPDEST PUSH1 0x1 DUP3 ADD SWAP1 POP SWAP2 SWAP1 POP JUMP JUMPDEST PUSH1 0x0 DUP3 DUP3 MSTORE PUSH1 0x20 DUP3 ADD SWAP1 POP SWAP3 SWAP2 POP POP JUMP JUMPDEST PUSH32 0x536F7572636520646F6573206E6F742065786973740000000000000000000000 PUSH1 0x0 DUP3 ADD MSTORE POP JUMP JUMPDEST PUSH1 0x0 PUSH2 0x84D PUSH1 0x15 DUP4 PUSH2 0x806 JUMP JUMPDEST SWAP2 POP PUSH2 0x858 DUP3 PUSH2 0x817 JUMP JUMPDEST PUSH1 0x20 DUP3 ADD SWAP1 POP SWAP2 SWAP1 POP JUMP JUMPDEST PUSH1 0x0 PUSH1 0x20 DUP3 ADD SWAP1 POP DUP2 DUP2 SUB PUSH1 0x0 DUP4 ADD MSTORE PUSH2 0x87C DUP2 PUSH2 0x840 JUMP JUMPDEST SWAP1 POP SWAP2 SWAP1 POP JUMP JUMPDEST PUSH32 0x3931310000000000000000000000000000000000000000000000000000000000 PUSH1 0x0 DUP3 ADD MSTORE POP JUMP JUMPDEST PUSH1 0x0 PUSH2 0x8B9 PUSH1 0x3 DUP4 PUSH2 0x6F1 JUMP JUMPDEST SWAP2 POP PUSH2 0x8C4 DUP3 PUSH2 0x883 JUMP JUMPDEST PUSH1 0x3 DUP3 ADD SWAP1 POP SWAP2 SWAP1 POP JUMP JUMPDEST PUSH1 0x0 PUSH2 0x8DA DUP3 PUSH2 0x8AC JUMP JUMPDEST SWAP2 POP DUP2 SWAP1 POP SWAP2 SWAP1 POP JUMP JUMPDEST PUSH1 0x0 DUP2 MLOAD SWAP1 POP SWAP2 SWAP1 POP JUMP JUMPDEST PUSH1 0x0 JUMPDEST DUP4 DUP2 LT ISZERO PUSH2 0x90D JUMPI DUP1 DUP3 ADD MLOAD DUP2 DUP5 ADD MSTORE PUSH1 0x20 DUP2 ADD SWAP1 POP PUSH2 0x8F2 JUMP JUMPDEST PUSH1 0x0 DUP5 DUP5 ADD MSTORE POP POP POP POP JUMP JUMPDEST PUSH1 0x0 PUSH2 0x924 DUP3 PUSH2 0x8E4 JUMP JUMPDEST PUSH2 0x92E DUP2 DUP6 PUSH2 0x6F1 JUMP JUMPDEST SWAP4 POP PUSH2 0x93E DUP2 DUP6 PUSH1 0x20 DUP7 ADD PUSH2 0x8EF JUMP JUMPDEST DUP1 DUP5 ADD SWAP2 POP POP SWAP3 SWAP2 POP POP JUMP JUMPDEST PUSH1 0x0 PUSH2 0x956 DUP3 DUP5 PUSH2 0x919 JUMP JUMPDEST SWAP2 POP DUP2 SWAP1 POP SWAP3 SWAP2 POP POP JUMP JUMPDEST PUSH32 0x4E487B7100000000000000000000000000000000000000000000000000000000 PUSH1 0x0 MSTORE PUSH1 0x22 PUSH1 0x4 MSTORE PUSH1 0x24 PUSH1 0x0 REVERT JUMPDEST PUSH1 0x0 PUSH1 0x2 DUP3 DIV SWAP1 POP PUSH1 0x1 DUP3 AND DUP1 PUSH2 0x9A8 JUMPI PUSH1 0x7F DUP3 AND SWAP2 POP JUMPDEST PUSH1 0x20 DUP3 LT DUP2 SUB PUSH2 0x9BB JUMPI PUSH2 0x9BA PUSH2 0x961 JUMP JUMPDEST JUMPDEST POP SWAP2 SWAP1 POP JUMP JUMPDEST PUSH1 0x0 DUP2 SWAP1 POP DUP2 PUSH1 0x0 MSTORE PUSH1 0x20 PUSH1 0x0 KECCAK256 SWAP1 POP SWAP2 SWAP1 POP JUMP JUMPDEST PUSH1 0x0 PUSH1 0x20 PUSH1 0x1F DUP4 ADD DIV SWAP1 POP SWAP2 SWAP1 POP JUMP JUMPDEST PUSH1 0x0 DUP3 DUP3 SHL SWAP1 POP SWAP3 SWAP2 POP POP JUMP JUMPDEST PUSH1 0x0 PUSH1 0x8 DUP4 MUL PUSH2 0xA23 PUSH32 0xFFFFFFFFFFFFFFFFFFFFFFFFFFFFFFFFFFFFFFFFFFFFFFFFFFFFFFFFFFFFFFFF DUP3 PUSH2 0x9E6 JUMP JUMPDEST PUSH2 0xA2D DUP7 DUP4 PUSH2 0x9E6 JUMP JUMPDEST SWAP6 POP DUP1 NOT DUP5 AND SWAP4 POP DUP1 DUP7 AND DUP5 OR SWAP3 POP POP POP SWAP4 SWAP3 POP POP POP JUMP JUMPDEST PUSH1 0x0 DUP2 SWAP1 POP SWAP2 SWAP1 POP JUMP JUMPDEST PUSH1 0x0 PUSH2 0xA6A PUSH2 0xA65 PUSH2 0xA60 DUP5 PUSH2 0x495 JUMP JUMPDEST PUSH2 0xA45 JUMP JUMPDEST PUSH2 0x495 JUMP JUMPDEST SWAP1 POP SWAP2 SWAP1 POP JUMP JUMPDEST PUSH1 0x0 DUP2 SWAP1 POP SWAP2 SWAP1 POP JUMP JUMPDEST PUSH2 0xA84 DUP4 PUSH2 0xA4F JUMP JUMPDEST PUSH2 0xA98 PUSH2 0xA90 DUP3 PUSH2 0xA71 JUMP JUMPDEST DUP5 DUP5 SLOAD PUSH2 0x9F3 JUMP JUMPDEST DUP3 SSTORE POP POP POP POP JUMP JUMPDEST PUSH1 0x0 SWAP1 JUMP JUMPDEST PUSH2 0xAAD PUSH2 0xAA0 JUMP JUMPDEST PUSH2 0xAB8 DUP2 DUP5 DUP5 PUSH2 0xA7B JUMP JUMPDEST POP POP POP JUMP JUMPDEST JUMPDEST DUP2 DUP2 LT ISZERO PUSH2 0xADC JUMPI PUSH2 0xAD1 PUSH1 0x0 DUP3 PUSH2 0xAA5 JUMP JUMPDEST PUSH1 0x1 DUP2 ADD SWAP1 POP PUSH2 0xABE JUMP JUMPDEST POP POP JUMP JUMPDEST PUSH1 0x1F DUP3 GT ISZERO PUSH2 0xB21 JUMPI PUSH2 0xAF2 DUP2 PUSH2 0x9C1 JUMP JUMPDEST PUSH2 0xAFB DUP5 PUSH2 0x9D6 JUMP JUMPDEST DUP2 ADD PUSH1 0x20 DUP6 LT ISZERO PUSH2 0xB0A JUMPI DUP2 SWAP1 POP JUMPDEST PUSH2 0xB1E PUSH2 0xB16 DUP6 PUSH2 0x9D6 JUMP JUMPDEST DUP4 ADD DUP3 PUSH2 0xABD JUMP JUMPDEST POP POP JUMPDEST POP POP POP JUMP JUMPDEST PUSH1 0x0 DUP3 DUP3 SHR SWAP1 POP SWAP3 SWAP2 POP POP JUMP JUMPDEST PUSH1 0x0 PUSH2 0xB44 PUSH1 0x0 NOT DUP5 PUSH1 0x8 MUL PUSH2 0xB26 JUMP JUMPDEST NOT DUP1 DUP4 AND SWAP2 POP POP SWAP3 SWAP2 POP POP JUMP JUMPDEST PUSH1 0x0 PUSH2 0xB5D DUP4 DUP4 PUSH2 0xB33 JUMP JUMPDEST SWAP2 POP DUP3 PUSH1 0x2 MUL DUP3 OR SWAP1 POP SWAP3 SWAP2 POP POP JUMP JUMPDEST PUSH2 0xB76 DUP3 PUSH2 0x8E4 JUMP JUMPDEST PUSH8 0xFFFFFFFFFFFFFFFF DUP2 GT ISZERO PUSH2 0xB8F JUMPI PUSH2 0xB8E PUSH2 0x57D JUMP JUMPDEST JUMPDEST PUSH2 0xB99 DUP3 SLOAD PUSH2 0x990 JUMP JUMPDEST PUSH2 0xBA4 DUP3 DUP3 DUP6 PUSH2 0xAE0 JUMP JUMPDEST PUSH1 0x0 PUSH1 0x20 SWAP1 POP PUSH1 0x1F DUP4 GT PUSH1 0x1 DUP2 EQ PUSH2 0xBD7 JUMPI PUSH1 0x0 DUP5 ISZERO PUSH2 0xBC5 JUMPI DUP3 DUP8 ADD MLOAD SWAP1 POP JUMPDEST PUSH2 0xBCF DUP6 DUP3 PUSH2 0xB51 JUMP JUMPDEST DUP7 SSTORE POP PUSH2 0xC37 JUMP JUMPDEST PUSH1 0x1F NOT DUP5 AND PUSH2 0xBE5 DUP7 PUSH2 0x9C1 JUMP JUMPDEST PUSH1 0x0 JUMPDEST DUP3 DUP2 LT ISZERO PUSH2 0xC0D JUMPI DUP5 DUP10 ADD MLOAD DUP3 SSTORE PUSH1 0x1 DUP3 ADD SWAP2 POP PUSH1 0x20 DUP6 ADD SWAP5 POP PUSH1 0x20 DUP2 ADD SWAP1 POP PUSH2 0xBE8 JUMP JUMPDEST DUP7 DUP4 LT ISZERO PUSH2 0xC2A JUMPI DUP5 DUP10 ADD MLOAD PUSH2 0xC26 PUSH1 0x1F DUP10 AND DUP3 PUSH2 0xB33 JUMP JUMPDEST DUP4 SSTORE POP JUMPDEST PUSH1 0x1 PUSH1 0x2 DUP9 MUL ADD DUP9 SSTORE POP POP POP JUMPDEST POP POP POP POP POP POP JUMP INVALID LOG2 PUSH5 0x6970667358 0x22 SLT KECCAK256 0xCF 0xBF 0xAA BALANCE 0xDA 0xED 0x28 0xE0 0xCD LOG4 AND 0xDB DUP8 PUSH16 0xD84E30E14C2380B28668E20F9F0BD9C3 0xB2 CODECOPY PUSH5 0x736F6C6343 STOP ADDMOD SLT STOP CALLER "
				},
				"gasEstimates": {
					"creation": {
						"codeDepositCost": "321200",
						"executionCost": "infinite",
						"totalCost": "infinite"
					},
					"external": {
						"getRsuMessage(uint256)": "infinite",
						"setRsuMessage(uint256,uint256)": "infinite",
						"setSourceTrust(address)": "24744",
						"sourceTrust()": "infinite"
					}
				},
				"methodIdentifiers": {
					"getRsuMessage(uint256)": "5f030343",
					"setRsuMessage(uint256,uint256)": "0d6260f5",
					"setSourceTrust(address)": "9ec2568f",
					"sourceTrust()": "a2384044"
				}
			},
			"storageLayout": {
				"storage": [
					{
						"astId": 5,
						"contract": "contracts/RSU.sol:RSU",
						"label": "sourceTrust",
						"offset": 0,
						"slot": "0",
						"type": "t_contract(SourceTrust)275"
					}
				],
				"types": {
					"t_contract(SourceTrust)275": {
						"encoding": "inplace",
						"label": "contract SourceTrust",
						"numberOfBytes": "20"
					}
				}
			},
			"userdoc": {
				"kind": "user",
				"methods": {},
				"version": 1
			}
		}
	}
}